:100000006F00E06700000000F4060000F206000048
:1000100000000000000000000000000000000000E0
:1000200000000000000000000000000000000000D0
:10003000F206000000000000F206000000000000D0
:10004000F2060000F2060000F2060000F2060000D0
:10005000F2060000F2060000F2060000F2060000C0
:10006000F2060000F2060000F2060000F2060000B0
:10007000F2060000F2060000F2060000F2060000A0
:10008000F2060000F2060000F2060000F206000090
:10009000F2060000F2060000F20600000000000078
:1000A0002A86014593F6150091C232958581060690
:1000B000F5F9828000000000634E050263C3050469
:1000C0002E86AA857D5515C285466378B60063568F
:1000D000C00006068606E36CB6FE014563E4C50073
:1000E000918D558D85820582F5FA82808682C93F81
:1000F0002E8582823305A0406347B000B305B0402F
:10010000C1B7B305B0408682653F3305A040828207
:10011000868263C70500634905005D372E858282AC
:10012000B305B040E35B05FE3305A040513F330506
:10013000B040828200002A832E8501CE83220600F1
:1001400001475C426348A70023800700484233050B
:10015000554082800C461442FD15AE96E386D7FECC
:100160009386170054C2B306E30083C60600050752
:100170002380D700F9B799C6014363D7B600B68587
:10018000054319A00143AE868D8EBA87B383E6007E
:10019000B382F340634A500493C7F6FFFD87FD8E98
:1001A000BA9681473386F540B382F6006342C004B5
:1001B00093C7F5FFFD87FD8DB6953385E540630454
:1001C00003026372B7029307A002A38FF5FE938622
:1001D000F5FF637AD700238FF5FE9386E5FF6374FE
:1001E000D700A38EF5FE82808507A38FC7FE4DB78B
:1001F0003306F5000346060085072380C2005DB77D
:1002000037F700E01C473E951C47898FE3CE07FE79
:100210008280011106CE22CC26CA02C02A836357EF
:10022000050089E685473303A0403EC0058A1304D4
:10023000100619C213041004BA8459141A853AC856
:100240001AC22EC61AC45D35A5472243B24542479D
:100250009376F50F63E1A7069386060393F6F60FF0
:10026000938714002380D4001A853AC83EC62EC452
:10027000813D9246A245B24742472A8363FBB602BC
:10028000824699C69306D0022380D7009387240024
:100290003385E7409356F501AA96238007008586AB
:1002A0000146FD17634BD600F2406244D24405611B
:1002B0008280BE8461B7A29655B7B305C70083C2DA
:1002C000070003C30500050623805500238067004F
:1002D000C9BFB7170240984BB7062000558F98CB7F
:1002E000984BB706E0FFFD16758F98CBB7570040C7
:1002F00003D74740C166938606FC758F1367870155
:100300002392E74071770507239EE74003D7074014
:10031000136717002390E74003D707401367074090
:100320002390E74082801301C1FC3ED093D7360072
:1003300093F6860F3EC6B387A60022D626D406D8EB
:100340002AC02ECA32CC3ACE3EC401448544F2477C
:100350006368F400C2503254A254130141038280F6
:10036000D247A29763D6070005041374F40FC5B7EC
:100370001307F003E360F7FEB24513F777003EC8BA
:100380002285B397E4003EC2213BE24722433E95DB
:10039000C2478D879E073ED28247E38767FC83472B
:1003A00005008145B70300203EC8B306B30093079C
:1003B000F00763D5D70061130505F9BFC24733972E
:1003C000B400030641007D8F92579342F6FFBE961C
:1003D000C206C18293870302B69783C70700B3F7AB
:1003E00057008252E207E187638792023337E000C9
:1003F0003307E040798E37070020D18F13070702BB
:1004000093F7F70FB302D7002380F2008505A147C9
:10041000E39DF5F84DB713371700D9BF3706002015
:1004200083270600711106C0A14693D5570113D743
:10043000F7012D8F3D8F93D517002D8FFD16058B5E
:10044000860793F6F60FD98FEDF29305150013F595
:10045000F70F2320F6006D39824011018280931737
:100460008501E18763C807029307F00363E4B702DD
:1004700093D735009E073E95B70700209387070264
:10048000AA9783C607009D8905473317B700558F84
:100490002380E700828093178501E18763CA070400
:1004A000411126C206C622C49307F003AE8463E25C
:1004B000B702B307C500130700086357F700130618
:1004C00000F8098E1376F60F2A961374F60F631749
:1004D0008500B24022449244410182809307150076
:1004E00093F7F70FA6853EC09D3F82473E85C5B76F
:1004F000828093178501E18763C807049307F0039F
:1005000063E4B704411126C206C622C43387C5007E
:1005100093070004AA8463D5E7008D8F13F6F70FC5
:100520002E961374F60F63978500B24022449244CE
:10053000410182809387150093F7F70F26853EC00F
:10054000393F8247BE85C5B78280311126C4B28447
:10055000368606C822C636C22A842EC0593F1246A5
:1005600082451385F4FF22951375F50F593782459F
:10057000268622850D379247024722853244C240A3
:10058000FD172686A244B305F70093F5F50F510138
:1005900019B7B70700E083A7470F8280211122C84F
:1005A00006CA26C602C42E84DDEDB70700E083A785
:1005B000470F89C793F7070891E3E13FD2402285AF
:1005C0004244B24461018280B30794401D476353A3
:1005D000F700BA8737770200B70600E01307171055
:1005E0009386460F904293750608A5E111C62AC26C
:1005F0003EC045371245824734000D47B685634AF1
:10060000F704A246370700E00D46232CD70EB306A9
:100610009500014783C2060005073383E5002300E8
:1006200053006385E7008506E316C7FE138747007E
:10063000136707F82304E100A246370700E0BE94E1
:10064000232AD70EE3C284F895BF7D1741FF268485
:10065000B5B73386E4002A960346060005078506EB
:10066000A38FC6FE69BF8144F1BF611122C006C2DB
:100670002E842D37924022850244210182809701E9
:1006800000209381211813810100130500087310C5
:1006900005308D46170500001305C596558D73105E
:1006A000553013850182938501C201466356B5001A
:1006B00010C11105E34EB5FE17150000130545AC3A
:1006C0009705002093850594138601826388C500F1
:1006D000144194C111059105E39AC5FEB7F700E0F6
:1006E000054798C38567938727B3739017347300C2
:1006F000203001A0371702401C47B7068000D58F75
:100700001CC7AA8703C7070001E73385A74082807B
:100710008507CDBF130141FAA2CAA6C886CC2AC05C
:100720002EC23284B68409E59307601302C23EC02C
:1007300002CA8347040013071400A30FF10081EBE2
:10074000E64056445245C6441301C10582803AC66C
:10075000930650026380D7021246824785451305EF
:10076000F1018297324726C43A84D247A244AA971D
:100770003ECAC1B783471400930600031307240041
:10078000A30FF1003EC66393D7083A848146014720
:10079000A54519A893172700BA97860705043307BC
:1007A000F6008347F4FF8546138607FD1375F60FA1
:1007B000E3F2A5FE99C2A30FF1003AC8E14663D364
:1007C000E60036C81306C00681466398C700834713
:1007D000040085460504A30FF1000346F1019307C9
:1007E00040066305F60663E7C702930780056300CA
:1007F000F60A93073006630DF60A39D2124682478D
:1008000085451305F101829726C485B7930600023A
:1008100036C6A5BF93075007630AF6029307800701
:100820006307F60693073007E31AF6FC9387440044
:1008300084403ACC3EC42685E9356247AA85635692
:10084000E008C2463246381826851DA0938744002A
:100850003EC495C61306B6F81810933616008840A5
:100860000146A9457D32C24632463818AA8508108D
:1008700019321246AA85281882478297FDB5930738
:10088000500718108546E30CF6FC8146C9BF884026
:10089000130686FA9387440018108546133616000F
:1008A000C1453EC4BD32C2463246AA853818C1B7DA
:1008B000938744003EC49C40C2463246A30FF100D9
:1008C000381885451305F10165B7124626856DB7C1
:1008D000111132C62A862EC436C88145340013054C
:1008E000A06606C23ACA3ECC36C02D359240710190
:1008F000828085670A05938747FCAA978C43056524
:100900007111130585F406C0E13782401101D1B29F
:100910006167B75700401307076A938707407D5602
:1009200083D68701898ADDCE7D17E31BC7FE01458B
:1009300021A8E1679387176A8356470193F6060853
:1009400089E6FD17F5FB0D456DB7834705000505E5
:100950002318F700E31FB5FCE16637570040370660
:1009600007009386066A1307074013064608FD55DD
:100970000355470183578701C207C98FF18F6387EA
:10098000C700FD16E396B6FE11457DBF83570700ED
:1009900093E707202310F700828037570040AA957D
:1009A0001307074045BF930780072318F7006166C8
:1009B000B7560040370707001306066A93860640BD
:1009C000130727087D5383D2460183D78601C207C8
:1009D000B3E75700F98FE382E7FC7D16E31566FE67
:1009E00009459DB703D70700E16637060300136783
:1009F00007102390E700375700409386066A1307D5
:100A0000074005067D538352470183578701C2077C
:100A1000B3E75700F18FE388C7F8FD16E39566FE4C
:100A200005451DB7130181FDA300A10089450A8575
:100A300006D223000100E93D925013018102828019
:100A40002A96AA876393C70082802380B700850710
:100A5000D5BF370500201306004081451305050268
:100A6000C5B781476313F60082803387F50083465C
:100A700007003307F50085072300D700E5B7797134
:100A80001305100206D622D426D2693F0145593FEC
:100A90001305F007413F1305200269370145593717
:100AA000370400201D4513040402AD3F93040440A5
:100AB00093070004A285130600021305110023000A
:100AC000F1004537930510020A85130404028935A5
:100AD000E31094FEB2502254925445618280B727AD
:100AE0000240054798C3B71702403707080123A201
:100AF00007001307170898C337079F0098C7984344
:100B000093166700E3DD06FED843B7160240719BDB
:100B100013672700D8C32147DC42B18BE39EE7FE71
:100B2000B70700E023AC070E1307000823AAE70E5F
:100B30008280130181F406DB22D926D737140240C4
:100B4000793F1C4CB71401403755120093E747001A
:100B50001CCC1C4C130505F893E707021CCC1C4C5D
:100B600093E707011CCC9387044098431377F7F071
:100B700098C398431367070898C3094798CBEFF0C9
:100B80002FE81C4C3707200093E707011CCC5C4C76
:100B9000D98F5CCC9C407D771307F70F93F7F7F064
:100BA0009CC09C400564130484FD93E7070D9CC022
:100BB0009C40F98F9CC09C400567130707D0D98FD4
:100BC0009CC0EFF00FF1034504009307F00F631C86
:100BD000F508413501446535AD3D85648147228581
:100BE00013070004E1461386C4038145EFF0AFF319
:100BF0007935372509001305057CEFF06FE009040E
:100C0000F947E31BF4FC014402C2A1358147138676
:100C1000C40313070004E14681457945EFF0AFF0C6
:100C200093072003056663D3870481476147BA862B
:100C3000130646FFD14513050005EFF0CFEE8135D1
:100C4000B7170140938707409C471247898B11C310
:100C500085E393B717003EC2050493075006E316D9
:100C6000F4FA01445DB70504753BB1BF85477DBF0C
:100C7000CD333135856513060006938585EEE80092
:100C8000CD332945EFF08FF91304D00202C002C41E
:100C900002CA02C802C6B7170140938707409C47A3
:100CA0005247898B11E3C1C393B717003ECAA247CD
:100CB00085C302479307C00363CCE70682469307C8
:100CC000170079476344D7067D143EC092473EC45F
:100CD000B24785073EC63247D5476317F700C2477C
:100CE00002C693C717003EC8F64763D4070A130627
:100CF0000002EC10E800B533130600026C01E810A6
:100D00008D332945EFF08FF1954763C8A70293878C
:100D100081813EC93ECB3ECD930750033ED102C7F1
:100D2000A1473ED3B1A892473ECA61B7050471BF3F
:100D30001304D00202C002C461BFA14763CFA70061
:100D400085473EC785679387C7113EC93ECB3ECDD9
:100D50009307D0023ED1C147E9B72547631CE5128E
:100D600009473AC705671307C7103AC93ACB056761
:100D70001307C70F3ACD130750033AD141473AD36F
:100D80003ED57945EFF08FE9F65793872703AA9769
:100D90003ECFC2476382071256477C10BC57BAC881
:100DA000565785649384C415BAD84147BA862686B7
:100DB0003EC9A28581473D45EFF0EFD6C146368654
:100DC0009375F40F3D45EFF04FF84147BA862686FC
:100DD000814781456155EFF00FD5C1463686814583
:100DE0000145EFF08FF6E40083C7840183A204017C
:100DF00083A3C4013ECCCC48E246D04013F7F30FA6
:100E0000814716851ED43AD22ED016CEEFF0AFD140
:100E1000F24212578255624613F5F20FBA8693F5E5
:100E2000F50F16CCEFF06FF2E2429387F2FF9CC809
:100E3000BD12B94763EC5708A2539307D002B3879A
:100E4000774063D587089C400547FD176360F70826
:100E50003725B700130505B0EFF08FBAB7676F728B
:100E6000938737353ED69167938757A65946814574
:100E700048183ED8F1367C1003C7070031EF0567EC
:100E8000130787F783460700B1EA23800700C53EB2
:100E9000C93611B52947E316E5EE0D473AC7138762
:100EA00001813AC93ACB37070020130787003ACDB2
:100EB000130750033AD1B5B566477C108564BAC8AC
:100EC0006657FC579384C413BAD8C5B593840402FB
:100ED0007C11E39B97F059B7850779BF2380D70032
:100EE0000507850745B70000000000001800002036
:100EF00018000020180000208200000035000000CB
:100F00000800000008000000000000001800002099
:100F10001800002018000020A0000000350000008C
:100F20000800000008000000010000001C11000083
:100F30001C1100001C110000D20000002D00000058
:100F40001000000010000000737364313330365F0E
:100F50006932635F6572726F72202D2074696D65EE
:100F60006F75742077616974696E6720666F72208F
:100F700025730A0D00000000313000006E6F7420F0
:100F800062757379000000006D6173746572206D85
:100F90006F6465007472616E736D6974206D6F6447
:100FA00065000000747820656D70747900000000A1
:100FB0007472616E736D697420636F6D706C6574AB
:100FC000650000007C0F0000880F0000940F0000F7
:100FD000A40F0000B00F0000AED580A83FD30040A2
:100FE0008D142000A1C8DA12818FD9F1DB40A4A6AC
:100FF000AFFF0000000000000400007C00000400BF
:1010000000000000680000140000140000780000D8
:1010100000000078000014000014000078000000B8
:1010200000000400007C0000040000000000240018
:1010300000540000540000480000000000000000C0
:10104000000000000000F80001040002FA0003069E
:101050000002020002020003FE0002020003FE0082
:1010600000000000000003FE0002020003FE00007A
:10107000000000000000F80001040002FA0003066E
:101080000002020002020002020001040000F80057
:1010900000000000060000180000200000C000034F
:1010A000B00000DC00002600001A0000060000006E
:1010B0000000F80001040002FA000306000202002A
:1010C00002020002020001040000F8000000000318
:1010D000FE0002020003FE00000400001800006091
:1010E0000001A000005000002C0000160003FE00CC
:1010F0000000000000000000000000000018001EBA
:101100001FFF7FFFCFFE07F006300E3000080F8E66
:101110001FFF7FFDEEFF8FF01E68134C08000C6070
:1011200062481BB00F6007C00D600AA00D600AA0E6
:101130000D60E7C7791E1FF80FF007C03FC03FC022
:10114000F3C0F3C03FFC3FFC33FF33FF00CF00CFC1
:10115000333C333C0CC00CC0303030303FC03FC05B
:10116000F3C0F3C03FFC3FFC33FF33FF00CF00CFA1
:0C117000333C333C0CC00CC00CC00CC065
:10117C0001000000000000000C3E3C3CCE63673CCC
:10118C00000E1E1CEEC3C77C8244292ADC3A1C18B4
:00000001FF
