:100000006F00E03C000000004C0400004A040000C7
:1000100000000000000000000000000000000000E0
:1000200000000000000000000000000000000000D0
:100030004A040000000000004A0400000000000024
:100040004A0400004A0400004A0400004A04000078
:100050004A0400004A0400004A0400004A04000068
:100060004A0400004A0400004A0400004A04000058
:100070004A0400004A0400004A0400004A04000048
:100080004A0400004A0400004A0400004A04000038
:100090004A0400004A0400004A0400000000000076
:1000A000634E050263C305042E86AA857D5515C2DD
:1000B00085466378B6006356C00006068606E36C84
:1000C000B6FE014563E4C500918D558D858205829C
:1000D000F5FA82808682C93F2E8582823305A04050
:1000E0006347B000B305B040C1B7B305B0408682E6
:1000F000653F3305A0408282868263C7050063495D
:1001000005005D372E858282B305B040E35B05FEB6
:100110003305A040513F3305B040828200003111C9
:1001200026C406C822C6AE84AA87B28599C60143F2
:1001300063D79600B684054319A00143A68633848D
:10014000964063530400014422863A853EC21AC099
:10015000A125024392472A87B30685000146B3854D
:10016000C4406342B00463D304008144B385960065
:100170003385E540630403026372B7029307A0026C
:10018000A38FF5FE9386F5FF637AD700238FF5FEE4
:100190009386E5FF6374D700A38EF5FEC240324418
:1001A000A24451018280B385C70003C50500B38511
:1001B000C60005062380A5005DB7011106CE22CC3E
:1001C00026CA02C02A836357050089E685473303A0
:1001D000A0403EC0058A1304100619C2130410047F
:1001E000BA8459141A853AC81AC22EC61AC4DD3503
:1001F000A5472243B24542479376F50F63E1A70630
:100200009386060393F6F60F938714002380D40099
:100210001A853AC83EC62EC4413D9246A245B24711
:1002200042472A8363FBB602824699C69306D002F0
:100230002380D700938724003385E7409356F50148
:10024000AA962380070085860146FD17634BD600DA
:10025000F2406244D24405618280BE8461B7A296B6
:1002600055B7B305C70083C2070003C305000506E1
:100270002380550023806700C9BFB7170240984B01
:10028000B7062000558F98CB984BB706E0FFFD16B8
:10029000758F98CBB757004003D74740C166938608
:1002A00006FC758F136787012392E7407177050776
:1002B000239EE74003D70740136717002390E740CA
:1002C00003D70740136707402390E7408280B707B2
:1002D00000E09387470F9C438280011122CC06CE19
:1002E00026CA2AC002C82E84F9E1B70700E0938726
:1002F000470F9C4389C793F7070891E3C93FF24032
:1003000022856244D24405618280B30694401D4632
:1003100036876353D6001D47377602001306161042
:100320008325030013F505083DED81C91AC63AC4BB
:1003300036C2713F32432247924693A636000146A9
:1003400099E21306D7FF8247938534000808BE95CB
:100350001AC43AC2992942468247B70600E02243AE
:1003600012479386860F90C28D453386970081464B
:100370008342060085069387060133852700230004
:1003800055006305D7000506E394B6FE93064700C3
:1003900093E606F82308D100C246BA942320D3007E
:1003A000E3C584F6A9BF7D1625FE268489BF3703E1
:1003B00000E081441303430FE5B7511122C206C484
:1003C0002E84213FA2402285124431018280970170
:1003D000002093812143138101001305000873104D
:1003E00005308D46170500001305C5C1558D7310E6
:1003F0005530170500201305E5C0938501C001465F
:100400006356B50010C11105E34EB5FE1715000087
:1004100013054580970500209385C5BE170600206B
:10042000130646BE6388C500144194C111059105A9
:10043000E39AC5FEB7F700E0054798C38567938741
:100440008788739017347300203001A0371702405B
:100450001C47B7068000D58F1CC7AA8703C70700B3
:1004600001E73385A74082808507CDBF130141FA9C
:10047000A2CAA6C886CC2AC02EC23284B68402CABA
:100480008347040093061400A30FF10081EBE640BC
:1004900056445245C6441301C105828036C613072F
:1004A00050026380E7021246824785451305F10139
:1004B0008297B24626C43684D247A244AA973ECA3F
:1004C000C1B7034714001306000393060003A30FEC
:1004D000E10032C6930724006312D7083E848146A8
:1004E0008147A54511A8139727000504BA9703472C
:1004F000F4FF8607B2978546130607FD1375F60FBE
:10050000E3F3A5FE99C2A30FE1003EC8E14663D321
:10051000F60036C81306C00681466318C7000347B5
:10052000040085460504A30FE1000346F10113070B
:1005300040066305E6066367C7029307800563000C
:10054000F60A93073006630DF60A31D21246824747
:1005500085451305F101829726C4B9BF93060002B1
:1005600036C6ADBF13075007630AE60213078007BC
:100570006307E60613073007E31AE6FC3ECC9387D1
:10058000440084403EC42685C93DE247AA8563569F
:10059000F008C2463246381826851DA093874400CD
:1005A0003EC495C61306B6F8181093361600884058
:1005B0000146A9451931C24632463818AA850810A5
:1005C000B93E1246AA85281882478297F5B5930747
:1005D000500718108546E30CF6FC8146C9BF8840D9
:1005E000130686FA938744001810854613361600C2
:1005F000C1453EC4D936C2463246AA853818C1B76D
:10060000938744003EC49C40C2463246A30FF1008B
:10061000381885451305F10165B7124626856DB773
:100620001301C1FD32CA2A862EC836CC8145140872
:100630001305A03B06C63ACE3ED036C0053DB240BB
:1006400013014102828085670A05938787B9AA97BB
:100650008C4305655111130505B206C4D137A2407C
:10066000310121B96167B75700401307076A9387C3
:1006700007407D5683D68701898AF1C27D17E31B27
:10068000C7FE01451DA037570040AA951307074034
:1006900093F5F50FE1679387176A8356470193F641
:1006A000060889E6FD17F5FB0D4571BF8347050078
:1006B00005052318F7009377F50FE39DF5FCE16638
:1006C00037570040370607009386066A130707402E
:1006D00013064608FD550355470183578701C20796
:1006E000C98FF18F6387C700FD16E396B6FE1145EB
:1006F0006DBF8357070093E707202310F700828020
:10070000930780072318F700375600406167B70644
:1007100007001307076A13060640938626087D53D1
:100720008352460183578601C207B3E75700F58F0E
:10073000E38BD7F47D17E31567FE0945BDB703D7F3
:100740000700E16637060300136707102390E700F0
:10075000375700409386066A1307074005067D5306
:100760008352470183578701C207B3E75700F18FD0
:10077000E388C7F8FD16E39566FE05453DB7797138
:10078000A300A10089450A8506D623000100D93DB2
:10079000B2500145456182802A96AA876393C700BB
:1007A00082802380B7008507D5BF81476313F60099
:1007B00082803387F500834607003307F5008507FD
:1007C0002300D700E5B779711305100206D622D4AD
:1007D00026D27537014565371305F0074D371305E8
:1007E0002002713F0145613F370400201D4513047D
:1007F000040071379304044093070004A285130694
:100800000002130511002300F10045379305100283
:100810000A8513040402B935E31094FEB250225441
:10082000925445618280B7270240054798C3B717A5
:1008300002403707080123A207001307170898C3CF
:1008400037079F0098C7371702401C4393966700ED
:10085000E3DD06FE5C43B7160240F19B93E72700F9
:100860005CC32147DC42B18BE39EE7FEB70700E0A3
:100870009387870F23A00700B70700E09387470FF0
:100880001307000898C38280797106D622D426D235
:10089000593FB7170240984F370600F17D1613678E
:1008A000470098CF984F1367070298CF984F136768
:1008B000070198CFB7170140938707409443371734
:1008C0000140F18E94C3944337060001D18E94C346
:1008D00014433706F1FF7D16F18E14C31443370617
:1008E0000800D18E14C3C14614CB9843B70610FF3D
:1008F000FD16758F98C39843B7068000558F98C32F
:100900001307000298CBB7170140938707809843DD
:10091000FD769386F60F758F98C398438566938608
:100920000680558F98C3114798CBB7F700E09847DA
:10093000B72709009387077C3E97B7F600E09C46EF
:10094000998FE3CE07FE9846B72709009387077C67
:100950003E97B7F600E09C46998FE3CE07FEB717A7
:100960000240984FB706200005641367070198CF2F
:10097000D84F1304C4BA558FD8CFB7170140984346
:10098000FD769386F60F1377F7F098C398431367B5
:10099000070D98C39843758F98C3984385669386CF
:1009A00006D0558F98C3D138034504009307F00F44
:1009B000631CF50037050020130600408145130530
:1009C0000500D93B093521A00504553B71DD814463
:1009D00002C01304A005B71701409847938707404A
:1009E000418B631307121307000498CB9847B7177E
:1009F0000140938707809C47824513770702918BBC
:100A00009336170013B617006388B60063110710FA
:100A100063910410050436C0630996000247630C15
:100A2000070E639C070E0504BA84B70700201385E0
:100A3000070013060040814585339377F40F3EC4C9
:100A40008567938787BC3ECC9377F40FE10793F7D4
:100A5000F70F0145D14685403ED093D736009E071B
:100A600013F776003EC8E2473397E00062076187DC
:100A70003303F50082573AC21347F7FF3ACE0347D4
:100A800003003AC6139787016187634C0704424706
:100A900081453386E70037070020130707003A96A1
:100AA000F24203470600924333775700620761879B
:100AB0003ACA3247B392B000B37257006393020050
:100AC00081435247336777002300E6001D47638A5E
:100AD000E50085053387B700620761870506E351A6
:100AE00007FC2247E11793F7F70F0503E319F7F81F
:100AF00085060D059307800493F6F60FE31FF5F4C2
:100B0000D931E35A04ECF1B537074000F9BDE3935E
:100B100004F07D1409B7814489FB7D14B28431B798
:100B2000737364313330365F6932635F6572726F3D
:100B300072202D2074696D656F75742077616974FA
:100B4000696E6720666F722025730A0D0000000031
:100B50006E6F742062757379000000006D617374AC
:100B60006572206D6F6465007472616E736D697477
:100B7000206D6F6465000000747820656D70747975
:100B8000000000007472616E736D697420636F6D94
:100B9000706C657465000000500B00005C0B000079
:100BA000680B0000780B0000840B0000AED580A815
:100BB0003FD300408D142000A1C8DA12818FD9F1F3
:100BC000DB40A4A6AFFF0000000000000000000012
:100BD0000000000000000000000003C03C03C03C17
:100BE00000FFF000FFF03FFFFF3FFFFFFCC33FFCB3
:100BF000C33FF3030FF3030FF000C0F000C03C3C11
:100C0000003C3C000FF0000FF0000000000000006E
:00000001FF
