:100000006F00A05200000000A8050000A605000037
:1000100000000000000000000000000000000000E0
:1000200000000000000000000000000000000000D0
:10003000A605000000000000A6050000000000006A
:10004000A6050000A6050000A6050000A605000004
:10005000A6050000A6050000A6050000A6050000F4
:10006000A6050000A6050000A6050000A6050000E4
:10007000A6050000A6050000A6050000A6050000D4
:10008000A6050000A6050000A6050000A6050000C4
:10009000A6050000A6050000A6050000000000005F
:1000A0002A86014593F6150091C232958581060690
:1000B000F5F9828000000000634E050263C3050469
:1000C0002E86AA857D5515C285466378B60063568F
:1000D000C00006068606E36CB6FE014563E4C50073
:1000E000918D558D85820582F5FA82808682C93F81
:1000F0002E8582823305A0406347B000B305B0402F
:10010000C1B7B305B0408682653F3305A040828207
:10011000868263C70500634905005D372E858282AC
:10012000B305B040E35B05FE3305A040513F330506
:10013000B04082820000311126C406C822C6AE84B7
:10014000AA87B28599C6014363D79600B684054352
:1001500019A00143A68633849640635304000144EA
:1001600022863A853EC21AC0EF00C0780243924709
:100170002A87B30685000146B385C4406342B004B4
:1001800063D304008144B38596003385E54063045E
:1001900003026372B7029307A002A38FF5FE938652
:1001A000F5FF637AD700238FF5FE9386E5FF63742E
:1001B000D700A38EF5FEC2403244A2445101828092
:1001C000B385C70003C50500B385C60005062380B7
:1001D000A5005DB7B7F700E09C4737F700E03E9514
:1001E0001C47898FE3CE07FE8280011106CE22CC08
:1001F00026CA02C02A836357050089E68547330370
:10020000A0403EC0058A1304100619C2130410044E
:10021000BA8459141A853AC81AC22EC61AC4F935B6
:10022000A5472243B24542479376F50F63E1A706FF
:100230009386060393F6F60F938714002380D40069
:100240001A853AC83EC62EC4A53D9246A245B2477D
:1002500042472A8363FBB602824699C69306D002C0
:100260002380D700938724003385E7409356F50118
:10027000AA962380070085860146FD17634BD600AA
:10028000F2406244D24405618280BE8461B7A29686
:1002900055B7B305C70083C2070003C305000506B1
:1002A0002380550023806700C9BFB7170240984BD1
:1002B000B7062000558F98CB984BB706E0FFFD1688
:1002C000758F98CBB757004003D74740C1669386D8
:1002D00006FC758F136787012392E7407177050746
:1002E000239EE74003D70740136717002390E7409A
:1002F00003D70740136707402390E740828013012C
:1003000041FD93D736003EC006D422D226D02AC261
:1003100032C83ACA9307F00363E7B70C824737073E
:100320000020130707008E07AA9793F7F70F3EC622
:10033000AE84AE8701443ACC8245054793F67700F8
:100340008D83B316D7009E07228536CE3EC4893BE7
:10035000F246C247E2063E95E186B24713C7F6FF72
:100360003ACE03470500BA83139787016187634735
:100370000704224781453386E70062473A96724375
:1003800003470600B6823377670005433313B30093
:10039000620733F3630061876313030081423367AD
:1003A00057002300E6001D47638AE5008505338773
:1003B000B700620761870506E35307FC1247E117A0
:1003C00093F7F70F0505E31EF7F8D24705041374FA
:1003D000F40F637AF400B387840093F7F70F1307E1
:1003E000F003E37BF7F4A250125482541301C102CC
:1003F000828093178501E18763C807029307F003A2
:1004000063E4B70293D735009E073E95B7070020F7
:1004100093870700AA9783C607009D89054733176E
:10042000B700558F2380E7008280B70700E09387ED
:10043000470F9C438280011122CC06CE26CA2AC0D7
:1004400002C82E84F9E1B70700E09387470F9C4369
:1004500089C793F7070891E3C93FF24022856244B8
:10046000D24405618280B30694401D4636876353AB
:10047000D6001D47377602001306161083250300A9
:1004800013F505083DED81C91AC63AC436C2713F5D
:1004900032432247924693A63600014699E213065C
:1004A000D7FF8247938534000808BE951AC43AC224
:1004B000992942468247B70600E0224312479386B5
:1004C000860F90C28D453386970081468342060091
:1004D00085069387060133852700230055006305B1
:1004E000D7000506E394B6FE9306470093E606F8A8
:1004F0002308D100C246BA942320D300E3C584F672
:10050000A9BF7D1625FE268489BF370300E08144FC
:100510001303430FE5B7511122C206C42E84213FB5
:10052000A2402285124431018280970100209381EC
:10053000612D1381010013050008731005308D46ED
:1005400017050000130505AC558D731055301705C0
:100550000020130525AB938501C001466356B50005
:1005600010C11105E34EB5FE17150000130545D166
:1005700097050020938505A917060020130686A875
:100580006388C500144194C111059105E39AC5FE25
:10059000B7F700E0054798C385679387479E739038
:1005A00017347300203001A0371702401C47B706EC
:1005B0008000D58F1CC7AA8703C7070001E73385D2
:1005C000A74082808507CDBF130141FAA2CAA6C801
:1005D00086CC2AC02EC23284B68402CA8347040065
:1005E00093061400A30FF10081EBE64056445245F8
:1005F000C6441301C105828036C6130750026380CA
:10060000E7021246824785451305F1018297B246FB
:1006100026C43684D247A244AA973ECAC1B703472C
:1006200014001306000393060003A30FE10032C673
:10063000930724006312D7083E8481468147A5456D
:1006400011A8139727000504BA970347F4FF8607FC
:10065000B2978546130607FD1375F60FE3F3A5FE63
:1006600099C2A30FE1003EC8E14663D3F60036C845
:100670001306C00681466318C70003470400854679
:100680000504A30FE1000346F101130740066305CB
:10069000E6066367C702930780056300F60A9307BF
:1006A0003006630DF60A31D212468247854513059E
:1006B000F101829726C4B9BF9306000236C6ADBFCA
:1006C00013075007630AE602130780076307E6066D
:1006D00013073007E31AE6FC3ECC938744008440BE
:1006E0003EC42685C93DE247AA856356F008C24646
:1006F0003246381826851DA0938744003EC495C60F
:100700001306B6F818109336160088400146A9451E
:10071000E93CC24632463818AA850810293C1246E0
:10072000AA85281882478297F5B5930750071810B5
:100730008546E30CF6FC8146C9BF8840130686FA5D
:10074000938744001810854613361600C1453EC4F1
:10075000693CC2463246AA853818C1B7938744001F
:100760003EC49C40C2463246A30FF100381885456E
:100770001305F10165B7124626856DB71301C1FD5A
:1007800032CA2A862EC836CC81451408130560511A
:1007900006C63ACE3ED036C0053DB24013014102F6
:1007A000828085670A05938747D7AA978C4305659A
:1007B00051111305C5CF06C4D137A2403101F5B49C
:1007C0006167B75700401307076A938707407D5654
:1007D00083D68701898AF1C27D17E31BC7FE0145D5
:1007E0001DA037570040AA951307074093F5F50F52
:1007F000E1679387176A8356470193F6060889E6EF
:10080000FD17F5FB0D4571BF83470500050523184E
:10081000F7009377F50FE39DF5FCE166375700404D
:10082000370607009386066A130707401306460833
:10083000FD550355470183578701C207C98FF18FC3
:100840006387C700FD16E396B6FE11456DBF83575B
:10085000070093E707202310F700828093078007A3
:100860002318F700375600406167B70607001307E3
:10087000076A13060640938626087D538352460175
:1008800083578601C207B3E75700F58FE38BD7F490
:100890007D17E31567FE0945BDB703D70700E1667D
:1008A00037060300136707102390E700375700400F
:1008B0009386066A1307074005067D538352470156
:1008C00083578701C207B3E75700F18FE388C7F862
:1008D000FD16E39566FE05453DB77971A300A100BD
:1008E00089450A8506D623000100D93DB25001454D
:1008F000456182802A96AA876393C70082802380FD
:10090000B7008507D5BF81476313F6008280338720
:10091000F500834607003307F50085072300D7005D
:10092000E5B779711305100206D622D426D27537A1
:10093000014565371305F0074D3713052002713F58
:100940000145613F370400201D4513040400713741
:100950009304044093070004A285130600021305C4
:1009600011002300F1004537930510020A85130496
:100970000402B935E31094FEB250225492544561FA
:100980008280B7270240054798C3B7170240370750
:10099000080123A207001307170898C337079F0011
:1009A00098C7371702401C4393966700E3DD06FEA5
:1009B0005C43B7160240F19B93E727005CC32147D5
:1009C000DC42B18BE39EE7FEB70700E09387870F19
:1009D00023A00700B70700E09387470F130700081D
:1009E00098C382805D7186C6A2C4A6C2593FB7145F
:1009F00002409C4CB70600F1FD1693E747009CCCE3
:100A00009C4C37140140056693E707029CCC9C4C34
:100A1000130606803725090093E707019CCCB7171A
:100A200001409387074098431305057C758F98C351
:100A30009843B7060001558F98C31840B706F1FFD9
:100A4000FD16758F18C01840B7060800558F18C0DE
:100A5000414718C89843B70610FFFD16758F98C315
:100A60009843B7068000558F98C31307000298CBB0
:100A7000B71701409387078094437D771307F70FDB
:100A80003AC0F98E94C39443D18E94C3914694CBCB
:100A9000EFF04FF4372509001305057CEFF08FF3D5
:100AA0009C4CB7062000024793E707019CCCDC4C26
:100AB000D58FDCCC1C4093F7F7F01CC01C4093E7AB
:100AC000070D1CC01C40F98F1CC01C400567130794
:100AD00007D0D98F1CC00564EFF02FFD130484D814
:100AE000034504009307F00F631CF5003705002051
:100AF00013060040814513050500ED3B1D3521A07F
:100B00000504E13B71DDB7070020138507001306DC
:100B100000408145C53305661307000493060008AD
:100B20001306C6E781450145EFF06FFDDD3B372534
:100B3000B700130505B0EFF0EFE985651306400235
:100B4000938585CD0810C133B717014093870740BF
:100B500002C402C202C00147D144130440063EC68B
:100B6000B71701409C47C18B93B6170036C8A1E365
:100B70003247930700041CCBB24702469847B71789
:100B8000014093870780137707029C47933617002D
:100B9000638EC612918B1DC36391071202C0F514B8
:100BA0006348041263D30402930400041DA0B246F8
:100BB000B70740009CCA69D31D147DBF6395071019
:100BC00085473EC08D04634D040C9307000463CC3D
:100BD000970CB707002013850700130600408145D6
:100BE000113B924785073EC2124793075006631791
:100BF000F700A24702C293C717003EC4A24713756D
:100C0000F40F93F5F40F6147E146C5C3056613067B
:100C100046E3EFF0CFEE814793F5F70F29453ECA43
:100C2000EFF02FFDD24713071004850793960701B5
:100C3000C182C207C187E391E6FE1245E545EFF0A8
:100C40002FCDAA821C10856303A3470003C50700AC
:100C5000138643DA6147E1469375F30F16CE3ECA19
:100C60001ACCEFF0CFE9F242D247856363990200D4
:100C700003C78700624315CF050323A26700D8434B
:100C80009306000463C9E6026354070013070004D7
:100C9000D8C3B107D800E399E7FA61314247C9B533
:100CA000130440061DB781442DB705661306C6DE42
:100CB0008DB77D13D9B70147E1BF02C0E35704F0F8
:100CC0001304400639B785473EC0CDBFE35304F057
:100CD00013044006C1BD00004B0000000A000000E4
:100CE000010000003200000032000000000000009F
:100CF000190000001400000001000000737364314B
:100D00003330365F6932635F6572726F72202D20F7
:100D100074696D656F75742077616974696E672099
:100D2000666F722025730A0D000000006E6F74203C
:100D300062757379000000006D6173746572206DD7
:100D40006F6465007472616E736D6974206D6F6499
:100D500065000000747820656D70747900000000F3
:100D60007472616E736D697420636F6D706C6574FD
:100D7000650000002C0D0000380D0000440D00003F
:100D8000540D0000600D0000AED580A83FD3004098
:100D90008D142000A1C8DA12818FD9F1DB40A4A6FE
:100DA000AFFF0000000000000000000000007C0019
:100DB000007C00007C0003FFC003FFC003FFC000F5
:100DC0007FC0007FC0007FC0007C40007C40007C72
:100DD0004003FC4003FFC003FC00007C00007400E3
:100DE000007C000000000000000000000000000087
:100DF00000000FF0000FF0003C3C003C3C00F00015
:100E0000C0F000C0F3030FF3030FFCC33FFCC33F6C
:100E10003FFFFF3FFFFF00FFF000FFF003C03C0378
:100E2000C03C0000000000000000000000000000C6
:100E300000000000000000000000000000000000B2
:100E400000000000000003C03C03C03C00FFF000B5
:100E5000FFF03FFFFF3FFFFFFCC33FFCC33FF30337
:100E60000FF3030FF000C0F000C03C3C003C3C001E
:100E70000FF0000FF000000000000000FFFFFFFF78
:100E8000FFFFFFFFFFFFFFFFFFFFFFFFFFFFFFFF72
:100E9000FFFFFFFFFFFFFFFFFFFFFFFFFFFFFFFF62
:100EA000FFFFFFFFFFFFFFFFFFFFFFFFFFFFFFFF52
:100EB000FFFFFFFFFFFFFFFFFFFFFFFFFFFFFFFF42
:100EC000FFFFFFFFFFFFFFFFFFFFFFFFFFFFFFFF32
:100ED000FFFFFFFFFFFFFFFFFFFFFFFFFFFFFFFF22
:100EE000FFFFFFFFFFFFFFFFFFFFFFFFFFFFFFFF12
:100EF000FFFFFFFFFFFFFFFFFFFFFFFFFFFFFFFF02
:100F0000FFFFFFFFFFFFFFFFFFFFFFFFFFFFFFFFF1
:100F1000FFFFFFFFFFFFFFFFFFFFFFFFFFFFFFFFE1
:100F2000FFFFFFFFFFFFFFFFFFFFFFFFFFFFFFFFD1
:100F3000FFFFFFFFFFFFFFFFFFFFFFFFFFFFFFFFC1
:100F4000FFFFFFFFFFFFFFFFFFFFFFFFFFFFFFFFB1
:100F5000FFFFFFFFFFFFFFFFFFFFFFFFFFFFFFFFA1
:100F6000FFFFFFFFFFFFFFFFFFFFFFFFFFFFFFFF91
:100F7000FFFFFFFFFFFFFFFFFFFFFFFFFFFFFFFF81
:100F8000FFFFFFFFFFFFFFFFFFFFFFFFFFFFFFFF71
:100F9000FFFFFFFFFFFFFFFFFFFFFFFFFFF87FFFE8
:100FA000FFFFFFFFFFFFFFFFFFFFFFFFFFF87FFFD8
:100FB000FFFFFFFFFFFFFFFFFFFFFFFFFFF83FFF08
:100FC000FFFFFFFFFFFFFFFFFFFFFFFFFFF83FFEF9
:100FD0000FFFFFFFFFFFFFF0FFE0FFFFFFF83FFE07
:100FE0000FFFFFFFFFFFFFF07FE0FFFFFFFC3FFE73
:100FF0000FFFFFFFFFFFFFF03FC0FFFFFFFC3FFEC3
:101000000FFFFFFFFFFFFFF03FC0FFFFFFFC3FFFB1
:10101000FFFFFFFFFFFFFFF01FC0FFFFFFFC3FFFD1
:10102000FFFFFFFFFFFFFFF01F90FFFFFFFC3FFFF1
:10103000FFFFFFFFFFFFFFF04F90FFFFFFFC000FE0
:101040000F800380F06000F84F90FFFFFFFC1E0F41
:101050000787C383F060F07867307FFFFFFC1F0FC6
:101060000787C3C3F0E0F07867307FFFFFFE1F0FF4
:101070008787C3C1F0E0F87873307FFFFFFE1F0F52
:101080008783C1C1F0F0F8787B707FFFFFFE1F0FF0
:101090008783C1E1F0F0F87838787FFFFFFE1F0703
:1010A0008783E1E0F0F0F8783C787FFFFFFE1F07D0
:1010B00087C3E1F0F0F0F8783CF87FFFFFFE1F07F0
:1010C00087C3E1F0E0F0F8783FF87FFFFFFE0F877D
:1010D00083C3E1F060F0F8383FF83FFFFFFE0F8771
:1010E00083C3E1F861F0783C3FF83FFFFFFE0F87D4
:1010F000C3C3E1F861F07C3C3FF83FFFFFFF0F877F
:10110000C3C3E0F821F87C3C3FF83FFFFFFF0F87A7
:10111000C3C1E0FC21F87C3C1FF83FFFFFFF000348
:10112000C3C000FC01F8003C1FFC3FFFFFFF0007AD
:10113000C3E000FE03F8003C3FFC3FFFFFFFFFFF62
:10114000FFFFFFFFFFFFFFFFFFFFFFFFFFFFFFFFAF
:10115000FFFFFFFFFFFFFFFFFFFFFFFFFFFFFFFF9F
:10116000FFFFFFFFFFFFFFFFFFFFFFFFFFFFFFFF8F
:10117000FFFFFFFFFFFFFFFFFFFFFFFFFFFFFFFF7F
:10118000FFFFFFFFFFFFFFFFFFFFFFFFFFFFFFFF6F
:10119000FFFFFFFFFFFFFFFFFFFFFFFFFFFFFFFF5F
:1011A000FFFFFFFFFFFFFFFFFFFFFFFFFFFFFFFF4F
:1011B000FFFFFFFFFFFFFFFFFFFFFFFFFFFFFFFF3F
:1011C000FFFFFFFFFFFFFFFFFFFFFFFFFFFFFFFF2F
:1011D000FFFFFFFFFFFFFFFFFFFFFFFFFFFFFFFF1F
:1011E000FFFFFFFFFFFFFFFFFFFFFFFFFFFFFFFF0F
:1011F000FFFFFFFFFFFFFFFFFFFFFFFFFFFFFFFFFF
:10120000FFFFFFFFFFFFFFFFFFFFFFFFFFFFFFFFEE
:10121000FFFFFFFFFFFFFFFFFFFFFFFFFFFFFFFFDE
:10122000FFFFFFFFFFFFFFFFFFFFFFFFFFFFFFFFCE
:10123000FFFFFFFFFFFFFFFFFFFFFFFFFFFFFFFFBE
:10124000FFFFFFFFFFFFFFFFFFFFFFFFFFFFFFFFAE
:10125000FFFFFFFFFFFFFFFFFFFFFFFFFFFFFFFF9E
:10126000FFFFFFFFFFFFFFFFFFFFFFFFFFFFFFFF8E
:0C127000FFFFFFFFFFFFFFFFFFFFFFFF7E
:00000001FF
