:100000006F00006500000000CE060000CC06000076
:1000100000000000000000000000000000000000E0
:1000200000000000000000000000000000000000D0
:10003000CC06000000000000CC060000000000001C
:10004000CC060000CC060000CC060000CC06000068
:10005000CC060000CC060000CC060000CC06000058
:10006000CC060000CC060000CC060000CC06000048
:10007000CC060000CC060000CC060000CC06000038
:10008000CC060000CC060000CC060000CC06000028
:10009000CC060000CC060000CC06000000000000EA
:1000A0002A86014593F6150091C232958581060690
:1000B000F5F9828000000000634E050263C3050469
:1000C0002E86AA857D5515C285466378B60063568F
:1000D000C00006068606E36CB6FE014563E4C50073
:1000E000918D558D85820582F5FA82808682C93F81
:1000F0002E8582823305A0406347B000B305B0402F
:10010000C1B7B305B0408682653F3305A040828207
:10011000868263C70500634905005D372E858282AC
:10012000B305B040E35B05FE3305A040513F330506
:10013000B04082820000311126C406C822C6AE84B7
:10014000AA87B28599C6014363D79600B684054352
:1001500019A00143A68633849640635304000144EA
:1001600022863A853EC21AC0EF00300B0243924706
:100170002A87B30685000146B385C4406342B004B4
:1001800063D304008144B38596003385E54063045E
:1001900003026372B7029307A002A38FF5FE938652
:1001A000F5FF637AD700238FF5FE9386E5FF63742E
:1001B000D700A38EF5FEC2403244A2445101828092
:1001C000B385C70003C50500B385C60005062380B7
:1001D000A5005DB7B7F700E09C4737F700E03E9514
:1001E0001C47898FE3CE07FE8280011106CE22CC08
:1001F00026CA02C02A836357050089E68547330370
:10020000A0403EC0058A1304100619C2130410044E
:10021000BA8459141A853AC81AC22EC61AC4F935B6
:10022000A5472243B24542479376F50F63E1A706FF
:100230009386060393F6F60F938714002380D40069
:100240001A853AC83EC62EC4A53D9246A245B2477D
:1002500042472A8363FBB602824699C69306D002C0
:100260002380D700938724003385E7409356F50118
:10027000AA962380070085860146FD17634BD600AA
:10028000F2406244D24405618280BE8461B7A29686
:1002900055B7B305C70083C2070003C305000506B1
:1002A0002380550023806700C9BFB7170240984BD1
:1002B000B7062000558F98CB984BB706E0FFFD1688
:1002C000758F98CBB757004003D74740C1669386D8
:1002D00006FC758F136787012392E7407177050746
:1002E000239EE74003D70740136717002390E7409A
:1002F00003D70740136707402390E7408280397196
:100300003ED493D7360093F6860F3EC6B387A60039
:100310003ECAB70700209387871022DC06DE26DA64
:100320002AC02ECE32D03AD201443EC2F247A29722
:1003300063DD0700925705041374F40FE368F4FEBD
:10034000F2506254D254216182801307F003E369B2
:10035000F7FE13F777008D87B2459E07C2078546E3
:10036000C1832285B394E6003EC41D3B8257939619
:100370008401E18652473E9593C7F6FF3ED88347F6
:1003800005003EC89307F00763CAE706A247014687
:10039000BA97C207C1833ECC93070008998F3ED617
:1003A000C2478544B392C400B3F25700E2471243F8
:1003B000C253B385C700C205C1812E930343030016
:1003C000B68733737300A25362031353834163866A
:1003D000930063960200814719A0E39E02FEB3E7F3
:1003E0006700124393F7F70F9A952380F5009D4716
:1003F0006306F600B2570506E394C7FA8247611711
:100400000505E31EF7F63DB793178501E18763C83D
:1004100007029307F00363E4B70293D735009E0702
:100420003E95B707002093878710AA9783C60700D9
:100430009D8905473317B700558F2380E7008280D9
:10044000130181FDB387B64026CEAE849395070194
:10045000C185BD85AD8F8D8FC207C18722D0330482
:10046000A6403EC093170401C187BD873D8C1D8CFB
:1004700093170401C1873EC21247824706D26348E0
:10048000F700B687B2863E86A687AA843E8563E8D3
:100490009600B2872A863E85B687A686BE84B38537
:1004A000D44093970501C1833EC6B307C54013935B
:1004B0000701135303411353F340B347F300B387CA
:1004C0006740C207C205C183C1853EC87D5793D727
:1004D000F501AE97131306013AC485871353034100
:1004E0006374A60005473AC413940601418463D897
:1004F000840092500254F244130181028280024728
:1005000092463ECC1ACA1376F40F1375F30F63DBD1
:10051000E602B285D53D5243E2474247998F139692
:100520000701C207C187418263DB0700A2473E93F0
:10053000B247420313530341B297C207C1879306E0
:1005400014005DB7AA853285C135E2475243F1B741
:10055000B70700E09387470F9C438280011122CCAC
:1005600006CE26CA2AC002C82E84F9E1B70700E0E9
:100570009387470F9C4389C793F7070891E3C93FC7
:10058000F24022856244D24405618280B3069440E1
:100590001D4636876353D6001D4737760200130683
:1005A00016108325030013F505083DED81C91AC611
:1005B0003AC436C2713F32432247924693A6360070
:1005C000014699E21306D7FF824793853400080855
:1005D000BE951AC43AC29D2142468247B70600E042
:1005E000224312479386860F90C28D45338697002B
:1005F00081468342060085069387060133852700DE
:10060000230055006305D7000506E394B6FE930664
:10061000470093E606F82308D100C246BA94232087
:10062000D300E3C584F6A9BF7D1625FE268489BFC5
:10063000370300E081441303430FE5B7511122C291
:1006400006C42E84213FA2402285124431018280BB
:10065000970100209381812B138181EF13050008FE
:10066000731005308D46170500001305A599558DAB
:100670007310553017050020130545A9938501C057
:1006800001466356B50010C11105E34EB5FE1715BE
:1006900000001305E5FA970500209385A596170637
:1006A00000201306A6A66388C500144194C1110555
:1006B0009105E39AC5FEB7F700E0054798C3856743
:1006C0009387E7E5739017347300203001A0371744
:1006D00002401C47B7068000D58F1CC7AA8703C7F6
:1006E000070001E73385A74082808507CDBF13014E
:1006F00041FAA2CAA6C886CC2AC02EC23284B684C9
:1007000002CA8347040093061400A30FF10081EB93
:10071000E64056445245C6441301C105828036C6A0
:10072000130750026380E70212468247854513058E
:10073000F1018297B24626C43684D247A244AA97D2
:100740003ECAC1B703471400130600039306000313
:10075000A30FE10032C6930724006312D7083E843A
:1007600081468147A54511A8139727000504BA972C
:100770000347F4FF8607B2978546130607FD1375F6
:10078000F60FE3F3A5FE99C2A30FE1003EC8E146D0
:1007900063D3F60036C81306C00681466318C70047
:1007A0000347040085460504A30FE1000346F10159
:1007B000130740066305E6066367C70293078005D3
:1007C0006300F60A93073006630DF60A31D212462B
:1007D000824785451305F101829726C4B9BF930668
:1007E000000236C6ADBF13075007630AE6021307BF
:1007F00080076307E60613073007E31AE6FC3ECCE2
:100800009387440084403EC42685C93DE247AA85BB
:100810006356F008C2463246381826851DA09387D5
:1008200044003EC495C61306B6F818109336160059
:1008300088400146A945553AC24632463818AA852D
:100840000810D5381246AA85281882478297F5B530
:100850009307500718108546E30CF6FC8146C9BF84
:100860008840130686FA938744001810854613368D
:100870001600C1453EC4953AC2463246AA8538188C
:10088000C1B7938744003EC49C40C2463246A30F82
:10089000F100381885451305F10165B71246268524
:1008A0006DB71301C1FD32CA2A862EC836CC8145E8
:1008B00014081305C06306C63ACE3ED036C0053DC7
:1008C000B24013014102828085670A059387C70AF7
:1008D000AA978C43056551111305450306C4D1370A
:1008E000A2403101D9B26167B75700401307076AC8
:1008F000938707407D5683D68701898AF1C27D1789
:10090000E31BC7FE01451DA037570040AA951307FA
:10091000074093F5F50FE1679387176A8356470100
:1009200093F6060889E6FD17F5FB0D4571BF834771
:10093000050005052318F7009377F50FE39DF5FCF7
:10094000E16637570040370607009386066A1307AB
:10095000074013064608FD55035547018357870195
:10096000C207C98FF18F6387C700FD16E396B6FEF5
:1009700011456DBF8357070093E707202310F70049
:100980008280930780072318F7003756004061677D
:10099000B70607001307076A130606409386260862
:1009A0007D538352460183578601C207B3E7570040
:1009B000F58FE38BD7F47D17E31567FE0945BDB7C7
:1009C00003D70700E166370603001367071023907B
:1009D000E700375700409386066A1307074005066D
:1009E0007D538352470183578701C207B3E75700FE
:1009F000F18FE388C7F8FD16E39566FE05453DB720
:100A00007971A300A10089450A8506D6230001005B
:100A1000D93DB2500145456182802A96AA876393E9
:100A2000C70082802380B7008507D5BF3705002027
:100A300013060040814513058510C5B78147631330
:100A4000F60082803387F500834607003307F50000
:100A500085072300D700E5B779711305100206D684
:100A600022D426D2713F0145613F1305F007493F6B
:100A700013052002713701456137370400201D45F9
:100A800013048410B53F9304044093070004A28527
:100A900013060002130511002300F10045379305EA
:100AA00010020A85130404023D3DE31094FEB25087
:100AB00022549254456182801301C1FB22DEB71794
:100AC0000140371401401304044093870780144405
:100AD0009C47130640069582898326DC86C02ACC73
:100AE000858A858B014702C402C2D14432C03716C1
:100AF00001401046418A32C805EA1307000418C8AD
:100B000018441583058B3ACA37170140130707802D
:100B100018470983058B3AC6524715C332470DC79C
:100B200081EE9DC391040DA03706400010C869DB1B
:100B300002471D173AC0E9B781EBF11431A03247E3
:100B400001E7639C060CF5FB9307800263DA970CC0
:100B500093048002E13D924785073EC21247930706
:100B600050066317F700A24702C293C717003EC49E
:100B7000A247DDCB056681476147E1461306465F24
:100B80000245A685EFF0AFF7E2471245E5459C43E5
:100B90003ED0EFF0EFD7E2472ACE81439382470061
:100BA000825763CAF308824763DD071C4135056637
:100BB00013070004930680021306464281458147CD
:100BC00013058002EFF0AFF33714014071351304C1
:100BD00004409307000437751B001CC813050574F7
:100BE000EFF04FDFB704400037751B0013050574A5
:100BF00004C8EFF02FDE93070004374549001CC8F6
:100C0000130505E0EFF00FDD3725B700130505B03C
:100C100004C8EFF02FDC054581AAE39707F219B766
:100C2000E3DA04F281443DB7056681476147E14656
:100C30001306C65AB1B783A5420003A50200056694
:100C400081476147E146130646561ED416D2EFF09F
:100C50000FEBF2479252A25399EB83C6C20083A7CF
:100C6000420003A7820091CE3E9723A2E20003A791
:100C700042009307D00363DAE700AD5723A2F200E6
:100C800001A8998F23A2F200DDB7AD56E348D7FE45
:100C900083A7020002476393E70E83A742001387EE
:100CA00027006359970CD50763CA970C01548564D4
:100CB000B53B8147130700049306000213864432B4
:100CC00081455145EFF0AFE305668147A2851307E3
:100CD0002003930600021306C62513057003EFF0E8
:100CE0000FE29D3B050493070004E313F4FC371463
:100CF0000140930420031304044093070004056596
:100D00001CC813050577EFF0EFCCB7074000256549
:100D10001CC8130505CAFD14EFF0CFCBF9FC37252D
:100D200009001305057C37140140EFF0AFCA9304A6
:100D30002003130404409307000405651CC8130531
:100D40000577EFF02FC9B707400025651CC81305CC
:100D500005CAFD14EFF00FC8F9FC3725B7001305DD
:100D600005B0EFF02FC7014586407254E2541301DD
:100D70004104828013872401E358F7F28503D102EE
:100D800005B5930750053ED69307C0033ED893069A
:100D90000004930730021306900681451305900660
:100DA0003EDAEFF0EFE99306000429468145294534
:100DB000EFF00FE97810814793950701035607007C
:100DC000C18193867500C206C18232853AD03ECE7B
:100DD000EFF00FE7F247930660040257A907E39D7F
:100DE000D7FC11073C18E318F7FCC24713B71700EC
:100DF0003AC89D31B247D2464247D5B9B7270240DB
:100E0000054798C3B71702403707080123A2070018
:100E10001307170898C337079F0098C73717024072
:100E20001C4393966700E3DD06FE5C43B716024061
:100E3000F19B93E727005CC32147DC42B18BE39E23
:100E4000E7FEB70700E09387870F23A00700B707E7
:100E500000E09387470F1307000898C38280411171
:100E600006C622C426C2593FB71402409C4CB7069E
:100E700000F1FD1693E747009CCC9C4C37140140D1
:100E8000056693E707029CCC9C4C130606803755F9
:100E9000120093E707019CCCB717014093870740E6
:100EA0009843130505F8758F98C39843B70600015A
:100EB000558F98C31840B706F1FFFD16758F18C0FF
:100EC0001840B7060800558F18C0414718C8984306
:100ED000B70610FFFD16758F98C39843B7068000BC
:100EE000558F98C31307000298CBB717014093871B
:100EF000078094437D771307F70F3AC0F98E94C3A8
:100F00009443D18E94C3914694CBEFF0AFAC9C4CFC
:100F1000B7062000024793E707019CCCDC4CD58F35
:100F2000DCCC1C4093F7F7F01CC01C4093E7070D86
:100F30001CC01C40F98F1CC01C400567130707D05C
:100F4000D98F1CC00564EFF04FB61304040C0345A1
:100F500004009307F00F6315F500C93CF53C21A090
:100F60000504793C6DD501448144C93493072003BD
:100F700063D387048147056613070004E14613061F
:100F8000C60D814513054006EFF06FB7F134B71772
:100F90000140984793870740418B9336170011EF24
:100FA0001307000498CB0504930750066313F4005D
:100FB0000144B6845DBF85477DBF3707400098CBAD
:100FC000FDD00143054485641AC08D348147130761
:100FD0000004E1461386C419814513058002EFF031
:100FE0000FB29D3C3755890013050544EFF08F9EE5
:100FF00089476303F4028D476305F4028547024382
:101000006318F400370500201305450B75342A8357
:10101000E30C03FA05044DBF370500201305450610
:10102000F5B7370500201305050079342A8349DD1B
:10103000054459BF737364313330365F6932635F7F
:101040006572726F72202D2074696D656F757420E2
:1010500077616974696E6720666F722025730A0D67
:10106000000000006E6F742062757379000000004C
:101070006D6173746572206D6F6465007472616E6A
:10108000736D6974206D6F6465000000747820656D
:101090006D707479000000007472616E736D697414
:1010A00020636F6D706C6574650000006410000053
:1010B000701000007C1000008C10000098100000E0
:1010C000AED580A83FD300408D142000A1C8DA120D
:1010D000818FD9F1DB40A4A6AFFF00000000000023
:1010E00001C00003E00003E007FF2007FF2007FF27
:1010F0002004002004002003FF2000032000012022
:101100000000E0040000060E0007BF8005FFC004D9
:10111000704004002003072007C72007E7200400D1
:101120002004002007FFE00000000400000780000A
:1011300007F00004FE00041FC00603E00180200148
:101140009C2007982007806006070004380007C02D
:10115000000200000001C00003E00003E007FF20E0
:1011600007FF2006002004002006002003FB2000CB
:1011700001200001A000000001C00007F78007F770
:10118000C00E0E400C06200C47200CE30004E320A8
:10119000047020021020014CC000C10000000000BB
:1011A000000000000000000000000000000000003F
:1011B000000000000000000000000000000FFFE041
:1011C0000FFFE00FFFF00C00100C001004001003E4
:1011D000FE200002600001C00000000000000F00BF
:1011E000001F00001F80001880000880000C800095
:1011F000070000000600003F0000FF0007FD000F91
:10120000E1000F01000C1E000C3E000407000381EA
:1012100000007100000D000001000F00000F000031
:101220000F80000C80000C80000CFFE00CFFF00C25
:101230007FF00C00100C001007FFF0000000000011
:10124000000000000000000000000000000000009E
:10125000000000000000000000000000000000008E
:10126000000000000000000000000000003F00003F
:101270000024C0000024B000003010000010200046
:1012800000006000000900000009000000090000E3
:10129000000000000000000000000000000E000040
:1012A000001F8000003FC000003FC000003FC000A2
:1012B000003FC00000FFC00001DFFC00018FFF8085
:1012C000018FFFC001DFFFE000FFFFE0003FFFF004
:1012D000003FFFF0003FFFF0003EFFF0003EFFF058
:1012E000003FE070003FC070003FC060003FC0E0C2
:1012F00000FFC1C001DFC380018FFF00018FC0006C
:1013000001DFC00000FFC000003F8000003F800000
:10131000003F0000003F0000003E00000000000011
:1013200000000000000000000000000000000000BD
:1013300000000000000000000000000000000000AD
:10134000000000000000000000000000000000009D
:10135000000000001E60C0C01E60C0C00198CCC06C
:101360000198CCC00198CCC00198CCC01FE03F00D0
:101370001FE03F0000000000000000001818FF0000
:101380001818FF00199800C0199800C019981F007C
:1013900019981F0007E000C007E000C00000FF0030
:1013A0000000FF0001F8000001F800000600FF0047
:1013B0000600FF0018000CC018000CC006000CC08E
:1013C00006000CC001F8FF0001F8FF00000000005B
:1013D0000000000007E03CC007E03CC01818CCC08B
:1013E0001818CCC01818C0C01818C0C007E03F00BB
:1013F00007E03F00000000000000000000000000C7
:1014000000000000000000000000000000000000DC
:1014100000000000000000000000000000000000CC
:10142000000000000000001FFE0000000006000099
:1014300000000E000000FFFB00000003F3000000AE
:1014400000710000000031000001FCF0000003FF0B
:10145000900000001F983CC00002183CC000031818
:10146000033007FD980330003D980330383D980362
:10147000301FFD983FC001CD803FC0019980000022
:1014800006118000000061003FC00000003FC088DE
:1014900000000330A800000330A8000003307000F3
:1014A0000003300000003FC06800003FC0A80000FB
:1014B00000008800000000700000303000000033A1
:1014C00030F0000033302800003330280000333083
:1014D000F000000FC00000000FC00800000000F87E
:1014E000000000000800003000000000300048004C
:1014F000003000A800003000A800003FF09000007D
:101500003FF0000000000000000000000060000C40
:10151000C00370000CC00338003033D9980030305D
:101520007889803030188C8030300CC4C00FC0FFF8
:10153000C4C00FC0F8C640000001F660000007CE2E
:101540006000000F8DF000007E1C7000003038D06D
:10155000000000F1A0000003F32000000F86C0008F
:10156000003C0080000000000000000000007C0043
:10157000007C00007C0003FFC003FFC003FFC0002D
:101580007FC0007FC0007FC0007C40007C40007CAA
:101590004003FC4003FFC003FC00007C000074001B
:1015A000007C0000000000000000000000000000BF
:1015B00000000FF0000FF0003C3C003C3C00F0004D
:1015C000C0F000C0F3030FF3030FFCC33FFCC33FA5
:1015D0003FFFFF3FFFFF00FFF000FFF003C03C03B1
:1015E000C03C0000000000000000000000000000FF
:1015F00000000000000000000000000000000000EB
:1016000000000000000003C03C03C03C00FFF000ED
:10161000FFF03FFFFF3FFFFFFCC33FFCC33FF3036F
:101620000FF3030FF000C0F000C03C3C003C3C0056
:0C1630000FF0000FF000000000000000B0
:10163C00050000004B0000000A0000000400000040
:10164C0001000000050000004B0000001E0000001F
:10165C000400000001000000050000003200000042
:10166C003200000004000000000000000500000033
:10167C00190000001400000004000000010000002C
:10168C0005000000000000000A000000040000003B
:10169C0000000000040000004B0000000A000000E5
:1016AC0004000000010000000400000032000000F3
:1016BC0032000000020000000000000004000000E6
:1016CC0019000000140000000200000001000000DE
:1016DC0004000000000000000A00000004000000EC
:1016EC0000000000040000004B0000000A00000095
:1016FC0002000000010000000400000032000000A5
:10170C004600000002000000010000000400000080
:10171C00190000001400000004000000000000008C
:10172C0004000000000000000A000000020000009D
:08173C000000000000000000A5
:00000001FF
