:100000006F00005300000000A6050000A4050000DA
:1000100000000000000000000000000000000000E0
:1000200000000000000000000000000000000000D0
:10003000A405000000000000A4050000000000006E
:10004000A4050000A4050000A4050000A40500000C
:10005000A4050000A4050000A4050000A4050000FC
:10006000A4050000A4050000A4050000A4050000EC
:10007000A4050000A4050000A4050000A4050000DC
:10008000A4050000A4050000A4050000A4050000CC
:10009000A4050000A4050000A40500000000000065
:1000A0002A86014593F6150091C232958581060690
:1000B000F5F9828000000000634E050263C3050469
:1000C0002E86AA857D5515C285466378B60063568F
:1000D000C00006068606E36CB6FE014563E4C50073
:1000E000918D558D85820582F5FA82808682C93F81
:1000F0002E8582823305A0406347B000B305B0402F
:10010000C1B7B305B0408682653F3305A040828207
:10011000868263C70500634905005D372E858282AC
:10012000B305B040E35B05FE3305A040513F330506
:10013000B040828200002A832E8501CE83220600F1
:1001400001475C426348A70023800700484233050B
:10015000554082800C461442FD15AE96E386D7FECC
:100160009386170054C2B306E30083C60600050752
:100170002380D700F9B799C6014363D7B600B68587
:10018000054319A00143AE868D8EBA87B383E6007E
:10019000B382F340634A500493C7F6FFFD87FD8E98
:1001A000BA9681473386F540B382F6006342C004B5
:1001B00093C7F5FFFD87FD8DB6953385E540630454
:1001C00003026372B7029307A002A38FF5FE938622
:1001D000F5FF637AD700238FF5FE9386E5FF6374FE
:1001E000D700A38EF5FE82808507A38FC7FE4DB78B
:1001F0003306F5000346060085072380C2005DB77D
:10020000011106CE22CC26CA02C02A8363570500FC
:1002100089E685473303A0403EC0058A13041006D3
:1002200019C213041004BA8459141A853AC81AC2A0
:100230002EC61AC4653DA5472243B2454247937670
:10024000F50F63E1A7069386060393F6F60F9387EF
:1002500014002380D4001A853AC83EC62EC48D35BA
:100260009246A245B24742472A8363FBB6028246C2
:1002700099C69306D0022380D70093872400338544
:10028000E7409356F501AA9623800700858601462C
:10029000FD17634BD600F2406244D2440561828070
:1002A000BE8461B7A29655B7B305C70083C20700E5
:1002B00003C3050005062380550023806700C9BFDE
:1002C000B7170240984BB7062000558F98CB984B34
:1002D000B706E0FFFD16758F98CBB757004003D7E0
:1002E0004740C166938606FC758F1367870123928A
:1002F000E74071770507239EE74003D70740136760
:1003000017002390E74003D7074013670740239067
:10031000E74082801301C1FC3ED093D7360093F6AC
:10032000860F3EC6B387A60022D626D406D82AC09A
:100330002ECA32CC3ACE3EC401448544D247A2975D
:1003400063DE0700F24705041374F40FE368F4FE5C
:10035000C2503254A2541301410382801307F003A8
:10036000E368F7FEB24513F777003EC82285B397DE
:10037000E4003EC23533E24722433E95C2478D87B3
:100380009E073ED28347050081453EC8B306B300B1
:100390009307F00763D8D700824761130505E393FD
:1003A00067FE4DB7C2473397B400B70200207D8F78
:1003B0009257968393820202BE96C206C1820306BA
:1003C0004100B69283C202009347F6FFB3F757008D
:1003D000938203028253E207E187638293023337F9
:1003E000E0003307E040798ED18F93F7F70FB69294
:1003F0002380F2008505A147E39AF5F871BF133712
:100400001700C5B7B706002003A50600711106C086
:100410002147135655019357F501B18FA98F1356F4
:100420001500B18F7D17858B06051377F70F5D8D4E
:100430006DF323A0A600AD451375F50FD1398240A9
:1004400011018280B70700E083A7470F8280211146
:1004500022C806CA26C602C42E84DDEDB70700E016
:1004600083A7470F89C793F7070891E3E13FD2407D
:1004700022854244B24461018280B30794401D4703
:100480006353F700BA8737770200B70600E0130717
:1004900017109386460F904293750608A5E111C682
:1004A0002AC23EC045371245824734000D47B68503
:1004B000634AF704A246370700E00D46232CD70E07
:1004C000B3069500014783C2060005073383E500A4
:1004D000230053006385E7008506E316C7FE1387F4
:1004E0004700136707F82304E100A246370700E03E
:1004F000BE94232AD70EE3C284F895BF7D1741FF2F
:100500002684B5B73386E4002A960346060005071D
:100510008506A38FC6FE69BF8144F1BF611122C069
:1005200006C22E842D37924022850244210182800A
:10053000970100209381012D13810100130500080C
:10054000731005308D46170500001305A5AB558DBA
:100550007310553013850182938501C2014663569D
:10056000B50010C11105E34EB5FE171500001305C7
:10057000259F970500209385E5A81386018263884F
:10058000C500144194C111059105E39AC5FEB7F762
:1005900000E0054798C385679387479E739017349B
:1005A0007300203001A0371702401C47B7068000B7
:1005B000D58F1CC7AA8703C7070001E73385A7406B
:1005C00082808507CDBF130141FAA2CAA6C886CC96
:1005D0002AC02EC23284B68409E59307601302C292
:1005E0003EC002CA8347040013071400A30FF100A2
:1005F00081EBE64056445245C6441301C105828052
:100600003AC6930650026380D70212468247854558
:100610001305F1018297324726C43A84D247A24497
:10062000AA973ECAC1B78347140093060003130775
:100630002400A30FF1003EC66393D7083A84814695
:100640000147A54519A893172700BA9786070504FF
:100650003307F6008347F4FF8546138607FD1375BD
:10066000F60FE3F2A5FE99C2A30FF1003AC8E146E6
:1006700063D3E60036C81306C00681466398C700F8
:100680008347040085460504A30FF1000346F101EA
:10069000930740066305F60663E7C70293078005E4
:1006A0006300F60A93073006630DF60A39D2124644
:1006B000824785451305F101829726C485B79306C5
:1006C000000236C6A5BF93075007630AF6029307D8
:1006D00080076307F60693073007E31AF6FC938753
:1006E000440084403ACC3EC42685E9356247AA8559
:1006F0006356E008C2463246381826851DA0938707
:1007000044003EC495C61306B6F81810933616007A
:1007100088400146A945ED34C24632463818AA85BC
:100720000810913C1246AA85281882478297FDB589
:100730009307500718108546E30CF6FC8146C9BFA5
:100740008840130686FA93874400181085461336AE
:100750001600C1453EC46D34C2463246AA853818DB
:10076000C1B7938744003EC49C40C2463246A30FA3
:10077000F100381885451305F10165B71246268545
:100780006DB7111132C62A862EC436C88145340091
:100790001305C05106C23ACA3ECC36C02D35924030
:1007A0007101828085670A05938747DAAA978C438F
:1007B000056571111305C5D206C0E13782401101EC
:1007C00001B66167B75700401307076A9387074070
:1007D0007D5683D68701898ADDCE7D17E31BC7FE50
:1007E000014521A8E1679387176A8356470193F66D
:1007F000060889E6FD17F5FB0D456DB78347050033
:1008000005052318F700E31FB5FCE16637570040E4
:10081000370607009386066A130707401306460843
:10082000FD550355470183578701C207C98FF18FD3
:100830006387C700FD16E396B6FE11457DBF83575B
:10084000070093E707202310F70082803757004006
:10085000AA951307074045BF930780072318F700A1
:100860006166B7560040370707001306066A93868D
:100870000640130727087D5383D2460183D786019C
:10088000C207B3E75700F98FE382E7FC7D16E31553
:1008900066FE09459DB703D70700E16637060300EA
:1008A000136707102390E700375700409386066AC6
:1008B0001307074005067D5383524701835787017D
:1008C000C207B3E75700F18FE388C7F8FD16E39539
:1008D00066FE05451DB7130181FDA300A1008945F2
:1008E0000A8506D223000100E93D925013018102DE
:1008F00082802A96AA876393C70082802380B700EC
:100900008507D5BF37050020130600408145130534
:100910000502C5B781476313F60082803387F5006F
:10092000834607003307F50085072300D700E5B7A6
:1009300079711305100206D622D426D2693F0145EB
:10094000593F1305F007413F130520026937014560
:100950005937370400201D4513040402AD3F9304AA
:10096000044093070004A28513060002130511003A
:100970002300F1004537930510020A851304040291
:100980008935E31094FEB25022549254456182801E
:10099000B7270240054798C3B71702403707080139
:1009A00023A207001307170898C337079F0098C7AB
:1009B000984393166700E3DD06FED843B71602405E
:1009C000719B13672700D8C32147DC42B18BE39E9C
:1009D000E7FEB70700E023AC070E1307000823AAC1
:1009E000E70E8280797106D622D426D25537B71702
:1009F0000240984FB7F600E01367470098CF984F32
:100A00001367070298CF984F1367070198CFB7175E
:100A100001409387074098431377F7F098C39843B2
:100A20001367070898C3094798CB9846B757120031
:100A3000938707F83E979C46998FE3CE07FEB7173A
:100A40000240984FB706200005641367070198CF4E
:100A5000D84F130484DB558FD8CFB7170140984384
:100A6000FD769386F60F1377F7F098C398431367D4
:100A7000070D98C39843758F98C3984385669386EE
:100A800006D0558F98C3EFF0BF830345040093074A
:100A9000F00F6312F50ABD350144593DA535856453
:100AA000814713070004E1461386C4E1814522858E
:100AB000EFF05F86B53DB7F600E09846B72709002E
:100AC0009387077C3E979C46998FE3CE07FE0904E7
:100AD000F947E315F4FC014402C62D35814713861E
:100AE000C4E113070004E14681457945EFF09F8298
:100AF00093072003056663D3870481476147BA865D
:100B0000130646DDD14513050005EFF0BF800D3516
:100B1000B7170140938707409C473247898B11C321
:100B200085E393B717003EC6050493075006E31606
:100B3000F4FA01445DB70504793B81BF85477DBF69
:100B4000D133FD33EFF01F8C930720083EC093078D
:100B5000D0022AC88144014702C402CA02CE01441D
:100B600002CC3EC2B7170140938707409C47F2462C
:100B7000898B91E2D5C793B717003ECED24795C374
:100B8000A2469307200363C3D70A22469387160021
:100B9000E54663CAC6089246FD163EC4B24736C251
:100BA0003ECAE24785073ECCE246D5476395F6004C
:100BB0001344140002CC01E7EFF0DF842AC8424757
:100BC000954763D2E716A14763DCE712A547630B9D
:100BD000F712A947630AF71245CCB9EC0245214741
:100BE0008147BA861386818193055003EFF08FF217
:100BF0008144414705668147BA861306C6F092458F
:100C00003D45EFF02FF18247FD173EC00247FD57EB
:100C10006303F70E32473AD0213BED31025799B7C3
:100C2000B2473ECEB1BF9246850685BF9307D0023C
:100C300002C402CA3EC2B5B78547639FF4000245AD
:100C4000414705668147BA861306C6F393055003EC
:100C5000EFF04FEC854471BF8947639FF400024574
:100C6000056681472147C1461306C6F29305500326
:100C7000EFF04FEA8944B5BF024521478147BA8664
:100C80001386018193055003EFF0CFE88D4495B7AB
:100C90009DE0024521478147BA86138681819305ED
:100CA0005003EFF02FE78144414705668147BA863C
:100CB0001306C6EDA9B78547639FF4000245414777
:100CC00005668147BA861306C6F393055003EFF015
:100CD0006FE48544D1BF89476399F40202450566F4
:100CE00081472147C1461306C6EF93055003EFF035
:100CF0006FE2894455BF9307200801473EC021BFDA
:100D00001DFC6DBF29FCD9BF25F8024521473706D8
:100D100000208147BA861306860093055003EFF042
:100D20006FDF8D4451B7E31B04EAA5B773736431D9
:100D30003330365F6932635F6572726F72202D20C7
:100D400074696D656F75742077616974696E672069
:100D5000666F722025730A0D000000006E6F74200C
:100D600062757379000000006D6173746572206DA7
:100D70006F6465007472616E736D6974206D6F6469
:100D800065000000747820656D70747900000000C3
:100D90007472616E736D697420636F6D706C6574CD
:100DA000650000005C0D0000680D0000740D00007F
:100DB000840D0000900D0000AED580A83FD3004008
:100DC0008D142000A1C8DA12818FD9F1DB40A4A6CE
:100DD000AFFF0000000000000400007C00000400E1
:100DE00000000000680000140000140000780000FB
:100DF00000000078000014000014000078000000DB
:100E000000000400007C000004000000000024003A
:100E100000540000540000480000000000000000E2
:100E2000000000000000F80001040002FA000306C0
:100E30000002020002020003FE0002020003FE00A4
:100E400000000000000003FE0002020003FE00009C
:100E5000000000000000F80001040002FA00030690
:100E60000002020002020002020001040000F80079
:100E700000000000060000180000200000C0000371
:100E8000B00000DC00002600001A00000600000090
:100E90000000F80001040002FA000306000202004C
:100EA00002020002020001040000F800000000033A
:100EB000FE0002020003FE000004000018000060B3
:100EC0000001A000005000002C0000160003FE00EE
:100ED0000000000000000000000000003FC03FC014
:100EE000F3C0F3C03FFC3FFC33FF33FF00CF00CF24
:100EF000333C333C0CC00CC0303030300018001E86
:100F00001FFF7FFFCFFE07F006300E303FC03FC00F
:100F1000F3C0F3C03FFC3FFC33FF33FF00CF00CFF3
:100F2000333C333C0CC00CC00CC00CC000080F8E0E
:100F30001FFF7FFDEEFF8FF01E68134C08000C6052
:100F400062481BB00F6007C00D600AA00D600AA0C8
:0C0F50000D60E7C7791E1FF80FF007C006
:100F5C0001000000000000000C3E3C3CCE63673CEE
:100F6C00000E1E1CEEC3C77C8244292ADC3A1C18D6
:00000001FF
