:100000006F00007000000000760700007407000019
:1000100000000000000000000000000000000000E0
:1000200000000000000000000000000000000000D0
:1000300074070000000000007407000000000000CA
:1000400074070000740700007407000074070000C4
:1000500074070000740700007407000074070000B4
:1000600074070000740700007407000074070000A4
:100070007407000074070000740700007407000094
:100080007407000074070000740700007407000084
:1000900074070000740700007407000000000000EF
:1000A0002A86014593F6150091C232958581060690
:1000B000F5F9828000000000634E050263C3050469
:1000C0002E86AA857D5515C285466378B60063568F
:1000D000C00006068606E36CB6FE014563E4C50073
:1000E000918D558D85820582F5FA82808682C93F81
:1000F0002E8582823305A0406347B000B305B0402F
:10010000C1B7B305B0408682653F3305A040828207
:10011000868263C70500634905005D372E858282AC
:10012000B305B040E35B05FE3305A040513F330506
:10013000B040828200002A832E8501CE83220600F1
:1001400001475C426348A70023800700484233050B
:10015000554082800C461442FD15AE96E386D7FECC
:100160009386170054C2B306E30083C60600050752
:100170002380D700F9B799C6014363D7B600B68587
:10018000054319A00143AE868D8EBA87B383E6007E
:10019000B382F340634A500493C7F6FFFD87FD8E98
:1001A000BA9681473386F540B382F6006342C004B5
:1001B00093C7F5FFFD87FD8DB6953385E540630454
:1001C00003026372B7029307A002A38FF5FE938622
:1001D000F5FF637AD700238FF5FE9386E5FF6374FE
:1001E000D700A38EF5FE82808507A38FC7FE4DB78B
:1001F0003306F5000346060085072380C2005DB77D
:1002000037F700E01C473E951C47898FE3CE07FE79
:100210008280011106CE22CC26CA02C02A836357EF
:10022000050089E685473303A0403EC0058A1304D4
:10023000100619C213041004BA8459141A853AC856
:100240001AC22EC61AC45D35A5472243B24542479D
:100250009376F50F63E1A7069386060393F6F60FF0
:10026000938714002380D4001A853AC83EC62EC452
:10027000813D9246A245B24742472A8363FBB602BC
:10028000824699C69306D0022380D7009387240024
:100290003385E7409356F501AA96238007008586AB
:1002A0000146FD17634BD600F2406244D24405611B
:1002B0008280BE8461B7A29655B7B305C70083C2DA
:1002C000070003C30500050623805500238067004F
:1002D000C9BFB7170240984BB7062000558F98CB7F
:1002E000984BB706E0FFFD16758F98CBB7570040C7
:1002F00003D74740C166938606FC758F1367870155
:100300002392E74071770507239EE74003D7074014
:10031000136717002390E74003D707401367074090
:100320002390E740828093178501E18763C9070224
:100330009307F00363E5B70293D735009E073E9518
:10034000B707002093870702AA979D89854603C7B0
:100350000700B395B60009C64D8F2380E700828061
:1003600093C5F5FF6D8FD5BF3706002083270600A4
:10037000711106C0A14693D5570113D7F7012D8FF0
:100380003D8F93D517002D8FFD16058B860793F6AD
:10039000F60FD98FEDF29305150013F5F70F232013
:1003A000F600BD338240110182801301C1FD22CECF
:1003B00006D026CC2A84AE82B28783C30700850785
:1003C000638D030601471396330085653A9693853E
:1003D00045372E9603430600814493158301E1853A
:1003E000368663C4050013C61600B385E2003305E4
:1003F000940093F5F50F1375F50F36CA3EC81AC66B
:100400001EC43AC216C0053732438504C20406032F
:10041000C180214682421247A243C247D24613738B
:10042000F30FE39CC4FA0507E31F97F832941374A3
:10043000F40F13078007E37287F882507244E24496
:1004400013014102828093178501E18763CB070482
:10045000411126C206C622C49307F003AE8463E2AC
:10046000B702B307C500130700086357F700130668
:1004700000F8098E1376F60F2A961374F60F631799
:100480008500B240224492444101828093071500C6
:1004900093F7F70F0546A6853EC0713582473E8526
:1004A000F9BF828093178501E18763C90704930729
:1004B000F00363E5B704411126C206C622C43387A0
:1004C000C50093070004AA8463D5E7008D8F13F657
:1004D000F70F2E961374F60F63978500B2402244EF
:1004E0009244410182809387150093F7F70F0546E8
:1004F00026853EC00D3D8247BE85F9BF8280311101
:1005000026C4B284368606C822C636C22A842EC0C5
:10051000513F124682451385F4FF22951375F50F5E
:100520005137824526862285393F924702472285E8
:100530003244C240FD172686A244B305F70093F566
:10054000F50F510109B7130181FD93D7360093F6DA
:10055000860F3EC6B387A60022D006D226CE2AC07A
:100560002EC832CA3ACC3EC40144E2476368F40064
:1005700092500254F244130181028280C247B304B4
:10058000F40063D6040005041374F40FF9BF930755
:10059000F003E3EF97FCB24593F774000547B317F8
:1005A000F70022853EC2ED3CD24722468D843E951F
:1005B0009E048247E389C7FC834305000147A142AB
:1005C000B307E6009306F00763C3F604A697B706E1
:1005D0000020C207C18393850602BE950303410034
:1005E00083C605009347F3FFFD8E8547B397E70069
:1005F000B3F7F300B337F000B307F0403373F30001
:10060000B3E666002380D5000507E31B57FA6116A1
:10061000050545B7B70700E083A7470F8280211182
:1006200022C806CA26C602C42E84DDEDB70700E044
:1006300083A7470F89C793F7070891E3E13FD240AB
:1006400022854244B24461018280B30794401D4731
:100650006353F700BA8737770200B70600E0130745
:1006600017109386460F904293750608A5E111C6B0
:100670002AC23EC045371245824734000D47B68531
:10068000634AF704A246370700E00D46232CD70E35
:10069000B3069500014783C2060005073383E500D2
:1006A000230053006385E7008506E316C7FE138722
:1006B0004700136707F82304E100A246370700E06C
:1006C000BE94232AD70EE3C284F895BF7D1741FF5D
:1006D0002684B5B73386E4002A960346060005074C
:1006E0008506A38FC6FE69BF8144F1BF611122C098
:1006F00006C22E842D379240228502442101828039
:100700009701002093810110138101001305000857
:10071000731005308D46170500001305A58E558D05
:100720007310553013850182938501C201466356CB
:10073000B50010C11105E34EB5FE171500001305F5
:10074000654F970500209385E58B138601826388AA
:10075000C500144194C111059105E39AC5FEB7F790
:1007600000E0054798C38567938787F37390173434
:100770007300203001A0371702401C47B7068000E5
:10078000D58F1CC7AA8703C7070001E73385A74099
:1007900082808507CDBF130141FAA2CAA6C886CCC4
:1007A0002AC02EC23284B68409E59307601302C2C0
:1007B0003EC002CA8347040013071400A30FF100D0
:1007C00081EBE64056445245C6441301C105828080
:1007D0003AC6930650026380D70212468247854587
:1007E0001305F1018297324726C43A84D247A244C6
:1007F000AA973ECAC1B783471400930600031307A4
:100800002400A30FF1003EC66393D7083A848146C3
:100810000147A54519A893172700BA97860705042D
:100820003307F6008347F4FF8546138607FD1375EB
:10083000F60FE3F2A5FE99C2A30FF1003AC8E14614
:1008400063D3E60036C81306C00681466398C70026
:100850008347040085460504A30FF1000346F10118
:10086000930740066305F60663E7C7029307800512
:100870006300F60A93073006630DF60A39D2124672
:10088000824785451305F101829726C485B79306F3
:10089000000236C6A5BF93075007630AF602930706
:1008A00080076307F60693073007E31AF6FC938781
:1008B000440084403ACC3EC42685E9356247AA8587
:1008C0006356E008C2463246381826851DA0938735
:1008D00044003EC495C61306B6F8181093361600A9
:1008E00088400146A9453532C24632463818AA85A5
:1008F000081051301246AA85281882478297FDB504
:100900009307500718108546E30CF6FC8146C9BFD3
:100910008840130686FA93874400181085461336DC
:100920001600C1453EC4F530C2463246AA85381885
:10093000C1B7938744003EC49C40C2463246A30FD1
:10094000F100381885451305F10165B71246268573
:100950006DB7111132C62A862EC436C881453400BF
:100960001305C06E06C23ACA3ECC36C02D35924041
:100970007101828085670A0593870736AA978C43A1
:10098000056571111305452D06C0E137824011013F
:1009900089B26167B75700401307076A938707401A
:1009A0007D5683D68701898ADDCE7D17E31BC7FE7E
:1009B000014521A8E1679387176A8356470193F69B
:1009C000060889E6FD17F5FB0D456DB78347050061
:1009D00005052318F700E31FB5FCE1663757004013
:1009E000370607009386066A130707401306460872
:1009F000FD550355470183578701C207C98FF18F02
:100A00006387C700FD16E396B6FE11457DBF835789
:100A1000070093E707202310F70082803757004034
:100A2000AA951307074045BF930780072318F700CF
:100A30006166B7560040370707001306066A9386BB
:100A40000640130727087D5383D2460183D78601CA
:100A5000C207B3E75700F98FE382E7FC7D16E31581
:100A600066FE09459DB703D70700E1663706030018
:100A7000136707102390E700375700409386066AF4
:100A80001307074005067D538352470183578701AB
:100A9000C207B3E75700F18FE388C7F8FD16E39567
:100AA00066FE05451DB7130181FDA300A100894520
:100AB0000A8506D223000100E93D9250130181020C
:100AC00082802A96AA876393C70082802380B7001A
:100AD0008507D5BF37050020130600408145130563
:100AE0000502C5B781476313F60082803387F5009E
:100AF000834607003307F50085072300D700E5B7D5
:100B000079711305100206D622D426D2693F014519
:100B1000593F1305F007413F13052002693701458E
:100B20005937370400201D4513040402AD3F9304D8
:100B3000044093070004A285130600021305110068
:100B40002300F1004537930510020A8513040402BF
:100B50008935E31094FEB25022549254456182804C
:100B6000130101D2232C812C232E112C232A912C0A
:100B700001448D3785641375F40F85461386443020
:100B8000D145EFF09F82AD3F3D65130505A6EFF01F
:100B90002FE7050493076002E31DF4FC014402C043
:100BA000153F854613864430D14513056002EFF0AA
:100BB000CFFF930720030566854663C38700814600
:100BC0009305D0021306C6302E85EFF00FFE0D3FC1
:100BD000B7170140938707409C470247898B11C391
:100BE00099EB93B717003EC0050493075006E3192D
:100BF000F4FA014475B79307E0F7930580F81305FD
:100C000020F91303C0F989660967130707BF9386A4
:100C100006C10546F9433ECC2EDEC14793052003AD
:100C2000AAD01AC32945130360FA3AC83ADABACCF3
:100C3000BADE3AD11AD536C6130300FB32CA02CE49
:100C40003ED03ED236D832DCAEC0BEC2BEC4B6CA7A
:100C5000B2CEAAD2BED4BED6B6DC32C11EC53EC705
:100C60003EC936CF32D302D79AC71303A0FB9AD915
:100C7000130340FCD142232A61109304E0FC1303C8
:100C80008002BAC3BAD52326E1102328E112232C0F
:100C90009112232AE114930480FD3ED93EDBB6C1B4
:100CA000B2C5AEC9BECBBECDB6D3B2D796DBBEDD24
:100CB000BEDF2324D1102328C110232C6110232E42
:100CC000F1102320F1122326D112232AC112232E40
:100CD000A1122320F1142322F1142328D114232C50
:100CE000C114232E9114895423209118B154232226
:100CF000911AD954232CE116232EE1182320E11C4C
:100D00002322E11E2320B1162322F1162324F116FB
:100D1000232AD116232EC116232201182324F118C9
:100D20002326F118232CD1182320C11A2324B11A09
:100D30002326F11A2328F11A232ED11A2322C11CAB
:100D40002324911C2326A11C2328F11C232AF11CF7
:100D50002320D11E2324C11E2326011E2328711EF9
:100D6000232AF11E232CF11E2322D1202324E1204B
:100D70002326E1222328E124232AE126232CE1282B
:100D80002326C1202328A120232A0120232CF1205F
:100D9000232EF1202324D1222328C122232A5122C9
:100DA000232CB122232EF1222320F1242326D12427
:100DB000232AC124232C7124232E51242320F126FD
:100DC0002322F1262328D126232CC126232E612677
:100DD000232061282322F1282324F128232AD12843
:100DE000232EC1282320B12A2322A12A2324F12A39
:100DF000232EE12A1307C0032326F12A232CD12A0C
:100E00002320C12C2322E12C2324B12C2326F12CD6
:100E10002328F12CC1310327012A9307F00363C46F
:100E2000E7020566854613064630D1451305600284
:100E3000EFF0AFD705669305D00285461306C6309E
:100E40002E85EFF08FD64400C848635FA000A54709
:100E500063C08704904403C7040283C6C4018C4C5A
:100E60002AC0EFF04FEE02459C48AA97DCC8938455
:100E70004402DC0DE39AF4FC6131624793070008F9
:100E800063C3E7040504D147E3D687F8014459B7A3
:100E9000D044D1B7014485043539A54763C78702DB
:100EA0000966130606BE2147C146F9452685EFF0BF
:100EB0008FE9B93193070008638DF4000504D14729
:100EC000E3CA87FCC9BF8144C1BF0966130606BDDA
:100ED000D9BF8320C12D0324812D8324412D1301EB
:100EE000012E8280B7270240054798C3B7170240FA
:100EF0003707080123A207001307170898C337070D
:100F00009F0098C7984393166700E3DD06FED84319
:100F1000B7160240719B13672700D8C32147DC42F4
:100F2000B18BE39EE7FEB70700E023AC070E130783
:100F3000000823AAE70E8280317106DF22DD26DB5E
:100F40003714024045371C4CB71401403755120086
:100F500093E747001CCC1C4C130505F893E70702E8
:100F60001CCC1C4C93E707011CCC9387044098438E
:100F70001377F7F098C398431367070898C3094796
:100F800098CBEFF0EFA71C4C3707200093E7070141
:100F90001CCC5C4CD98F5CCC9C407D771307F70F41
:100FA00093F7F7F09CC09C400964130444B793E79F
:100FB000070D9CC09C40F98F9CC09C40056713079F
:100FC00007D0D98F9CC0EFF0CFB003450400930742
:100FD000F00F6312F50CFD3C25365936E53C0D3615
:100FE00085651306C00693858526A800E53C29453E
:100FF000EFF08FB71304D00202C002C202C802C6CB
:1010000002C4B7170140938707409C474247898B2A
:1010100011E3C9C793B717003EC8924785C302477B
:101020009307C00363C1E708824693071700794717
:101030006349D7067D143EC085473EC2A247850757
:101040003EC42247D5476317F700B24702C493C78F
:1010500017003EC6F64763DC070A13064002EC1091
:10106000A8004934130640020C09E810A53C2945A4
:10107000EFF08FAF954763CDA702938781813ECB79
:101080003ECD3ECF85473ED1930750033ED502C9A2
:10109000A1473ED7A5A00504393405BF85473EC802
:1010A000BDBF050449BF1304D00202C002C279B714
:1010B000A14763C0A7028967938707BB05473ECB5B
:1010C0003ECD3ECF9307D0023ED53AC93AD1C14773
:1010D000C9B72547631EE51209473AC909671307CF
:1010E00007BA3ACB3ACD0967130707B93ACF054794
:1010F0003AD1130750033AD541473AD73ED97945FB
:10110000EFF08FA68A4793872703AA973ED3B2476B
:101110006384071246475C18FC53BAC65657896465
:10112000938404C1BAD84147BA862686A2853D4534
:101130003ECBEFF04FC1C14636869375F40F3D4567
:10114000EFF0EFBB4147BA86268681456155EFF047
:101150008FBFC146368681450145EFF04FBAA400E6
:1011600003A3440183C7C40183A204028C4CD04072
:1011700013F7F20FBE861A853ECA16D23AD02ECE8B
:101180001ACCEFF04FBC62430257F2455246BA8682
:101190001375F30F93F5F50F1ACAEFF04FB65243DC
:1011A0001307F3FFD8C83D1339476361670A9252AA
:1011B0001307D00233075740635A87089840854683
:1011C0007D1763E5E6083725B700130505B0EFF096
:1011D0002F83B7676F72938737353ED491679387B4
:1011E00057A65946814508183ED6EFF09F8D3C1012
:1011F00003C7070035E30567130747318346070038
:10120000B1EE23800700EFF0BF8FEFF0BF8CD5BBAE
:101210002947E316E5EE0D473AC9138701813ACB1A
:101220003ACD37070020130787003ACF05473AD158
:10123000130750033AD5B1BD56475C188964BAC646
:101240006657BC57938404BFBAD8F1BD9384440257
:101250005C19E39797F0B5BF850759BF2380D70086
:101260000507850761BF000000000000180000208E
:10127000180000201800002001000000820000007B
:101280003500000008000000080000000000000019
:1012900018000020180000201800002001000000A5
:1012A000A000000035000000080000000800000059
:1012B00001000000B01B0000B01B0000B01B0000CC
:1012C00001000000D20000002D000000100000000E
:1012D00010000000737364313330365F6932635F2E
:1012E0006572726F72202D2074696D656F75742040
:1012F00077616974696E6720666F722025730A0DC5
:10130000000000004D4F5050494E47007374617209
:1013100074000000313000006E6F742062757379C4
:10132000000000006D6173746572206D6F6465006C
:101330007472616E736D6974206D6F646500000076
:10134000747820656D707479000000007472616EAD
:10135000736D697420636F6D706C65746500000057
:101360001813000024130000301300004013000085
:101370004C13000000000000000000007E81A581E9
:10138000BD99817E7EFFDBFFC3E7FF7E6CFEFEFE24
:101390007C38100010387CFE7C381000387C38FE19
:1013A000FED6103810387CFEFE7C10380000183C49
:1013B0003C180000FFFFE7C3C3E7FFFF003C6642A5
:1013C00042663C00FFC399BDBD99C3FF0F070F7D67
:1013D000CCCCCC783C6666663C187E183F333F30F8
:1013E0003070F0E07F637F636367E6C018DB3CE743
:1013F000E73CDB1880E0F8FEF8E08000020E3EFEDD
:101400003E0E0200183C7E18187E3C186666666622
:10141000660066007FDBDB7B1B1B1B003E613C66BE
:10142000663C867C000000007E7E7E00183C7E18B4
:101430007E3C18FF183C7E18181818001818181849
:101440007E3C180000180CFE0C180000003060FEF6
:10145000603000000000C0C0C0FE0000002466FF35
:101460006624000000183C7EFFFF000000FFFF7EA6
:101470003C1800000000000000000000183C3C1870
:101480001800180066662400000000006C6CFE6CFA
:10149000FE6C6C00183E603C067C180000C6CC1840
:1014A0003066C600386C3876DCCC76001818300010
:1014B000000000000C18303030180C0030180C0CF4
:1014C0000C18300000663CFF3C6600000018187ED7
:1014D0001818000000000000001818300000007EFE
:1014E000000000000000000000181800060C183072
:1014F00060C08000386CC6D6C66C38001838181822
:1015000018187E007CC6061C3066FE007CC6063CB1
:1015100006C67C001C3C6CCCFE0C1E00FEC0C0FC51
:1015200006C67C003860C0FCC6C67C00FEC60C182F
:10153000303030007CC6C67CC6C67C007CC6C67E09
:10154000060C780000181800001818000018180081
:1015500000181830060C1830180C060000007E0029
:10156000007E00006030180C183060007CC60C183B
:10157000180018007CC6DEDEDEC07800386CC6FEBF
:10158000C6C6C600FC66667C6666FC003C66C0C0DB
:10159000C0663C00F86C6666666CF800FE626878AF
:1015A0006862FE00FE6268786860F0003C66C0C059
:1015B000CE663A00C6C6C6FEC6C6C6003C18181897
:1015C00018183C001E0C0C0CCCCC7800E6666C782D
:1015D0006C66E600F06060606266FE00C6EEFEFECD
:1015E000D6C6C600C6E6F6DECEC6C6007CC6C6C6F1
:1015F000C6C67C00FC66667C6060F0007CC6C6C621
:10160000C6CE7C0EFC66667C6C66E6003C663018D6
:101610000C663C007E7E5A1818183C00C6C6C6C62A
:10162000C6C67C00C6C6C6C6C66C3800C6C6C6D608
:10163000D6FE6C00C6C66C386CC6C6006666663CD4
:1016400018183C00FEC68C183266FE003C30303064
:1016500030303C00C06030180C0602003C0C0C0C12
:101660000C0C3C0010386CC60000000000000000AC
:10167000000000FF30180C00000000000000780C93
:101680007CCC7600E0607C666666DC0000007CC690
:10169000C0C67C001C0C7CCCCCCC760000007CC688
:1016A000FEC07C003C6660F86060F000000076CC14
:1016B000CC7C0CF8E0606C766666E60018003818A2
:1016C00018183C00060006060666663CE060666C7C
:1016D000786CE6003818181818183C000000ECFE6A
:1016E000D6D6D6000000DC666666660000007CC6C2
:1016F000C6C67C000000DC66667C60F0000076CC2C
:10170000CC7C0C1E0000DC766060F00000007EC027
:101710007C06FC003030FC3030361C000000CCCCA5
:10172000CCCC76000000C6C6C66C38000000C6D619
:10173000D6FE6C000000C66C386CC6000000C6C641
:10174000C67E06FC00007E4C18327E000E18187013
:1017500018180E0018181818181818007018180EF5
:101760001818700076DC0000000000000010386CD3
:10177000C6C6FE007CC6C0C0C67C0C78CC00CCCCF3
:10178000CCCC76000C187CC6FEC07C007C82780C29
:101790007CCC7600C600780C7CCC76003018780CB7
:1017A0007CCC76003030780C7CCC760000007EC09B
:1017B000C07E0C387C827CC6FEC07C00C6007CC625
:1017C000FEC07C0030187CC6FEC07C006600381865
:1017D00018183C007C82381818183C003018003863
:1017E00018183C00C6386CC6FEC6C600386C7CC6ED
:1017F000FEC6C6001830FEC0F8C0FE0000007E180D
:101800007ED87E003E6CCCFECCCCCE007C827CC6EA
:10181000C6C67C00C6007CC6C6C67C0030187CC626
:10182000C6C67C00788400CCCCCC76006030CCCCB2
:10183000CCCC7600C600C6C6C67E06FCC6386CC6D2
:10184000C66C3800C600C6C6C6C67C0018187EC066
:10185000C07E1818386C64F06066FC0066663C7EDA
:10186000187E1818F8CCCCFAC6CFC6C70E1B183C89
:1018700018D870001830780C7CCC76000C18003822
:1018800018183C000C187CC6C6C67C001830CCCC9E
:10189000CCCC760076DC00DC6666660076DC00E6A2
:1018A000F6DECE003C6C6C3E007E0000386C6C387E
:1018B000007C00001800181830633E00000000FE95
:1018C000C0C00000000000FE0606000063E66C7E5B
:1018D0003366CC0F63E66C7A366ADF061800181898
:1018E0003C3C1800003366CC6633000000CC663305
:1018F00066CC0000228822882288228855AA55AA10
:1019000055AA55AA77DD77DD77DD77DD1818181829
:101910001818181818181818F81818181818F81887
:10192000F818181836363636F63636360000000007
:10193000FE3636360000F818F81818183636F6064F
:10194000F636363636363636363636360000FE064B
:10195000F63636363636F606FE00000036363636B1
:10196000FE0000001818F818F80000000000000041
:10197000F8181818181818181F0000001818181848
:10198000FF00000000000000FF18181818181818B1
:101990001F18181800000000FF0000001818181881
:1019A000FF18181818181F181F181818363636364A
:1019B00037363636363637303F00000000003F30CD
:1019C000373636363636F700FF0000000000FF00DD
:1019D000F736363636363730373636360000FF00C3
:1019E000FF0000003636F700F73636361818FF00CD
:1019F000FF00000036363636FF0000000000FF0012
:101A0000FF18181800000000FF3636363636363616
:101A10003F00000018181F181F00000000001F18CA
:101A20001F181818000000003F3636363636363696
:101A3000FF3636361818FF18FF1818181818181817
:101A4000F8000000000000001F181818FFFFFFFF3B
:101A5000FFFFFFFF00000000FFFFFFFFF0F0F0F0CE
:101A6000F0F0F0F00F0F0F0F0F0F0F0FFFFFFFFF42
:101A700000000000000076DCC8DC760078CCCCD812
:101A8000CCC6CC00FEC6C0C0C0C0C0000000FE6C0A
:101A90006C6C6C00FEC6603060C6FE0000007ED834
:101AA000D8D870000000666666667CC00076DC18D8
:101AB000181818007E183C66663C187E386CC6FE06
:101AC000C66C3800386CC6C66C6CEE000E180C3E46
:101AD00066663C0000007EDBDB7E0000060C7EDBE1
:101AE000DB7E60C01E30607E60301E00007CC6C69B
:101AF000C6C6C60000FE00FE00FE000018187E18D4
:101B000018007E0030180C1830007E000C183018B9
:101B10000C007E000E1B1B1818181818181818181F
:101B200018D8D8700018007E001800000076DC007D
:101B300076DC0000386C6C380000000000000018F3
:101B40001800000000000018000000000F0C0C0C32
:101B5000EC6C3C1C6C36363636000000780C1830C5
:101B60007C00000000003C3C3C3C00000000000009
:101B700000000000AED580A83FD300408D142000A7
:101B8000A1C8DA12818FD9F1DB40A4A6AFFF000013
:101B90000018001E1FFF7FFFCFFE07F006300E303B
:101BA00000080F8E1FFF7FFDEEFF8FF01E68134CA5
:101BB00008000C6062481BB00F6007C00D600AA0EF
:101BC0000D600AA00D60E7C7791E1FF80FF007C06F
:101BD00018007800FFF8FFFE7FF30FE00C600C7038
:101BE000100071F0FFF8BFFEFF770FF1167832C8D2
:101BF0003FC03FC0F3C0F3C03FFC3FFC33FF33FFA7
:101C000000CF00CF333C333C0CC00CC03030303000
:101C10003FC03FC0F3C0F3C03FFC3FFC33FF33FF86
:101C200000CF00CF333C333C0CC00CC00CC00CC008
:101C300001000000000000000C3E3C3CCE63673C0D
:101C4000000E1E1CEEC3C77C8244292ADC3A1C18F5
:00000001FF
