:100000006F00604E00000000640500006205000003
:1000100000000000000000000000000000000000E0
:1000200000000000000000000000000000000000D0
:1000300062050000000000006205000000000000F2
:100040006205000062050000620500006205000014
:100050006205000062050000620500006205000004
:1000600062050000620500006205000062050000F4
:1000700062050000620500006205000062050000E4
:1000800062050000620500006205000062050000D4
:10009000620500006205000062050000000000002B
:1000A0002A86014593F6150091C232958581060690
:1000B000F5F9828000000000634E050263C3050469
:1000C0002E86AA857D5515C285466378B60063568F
:1000D000C00006068606E36CB6FE014563E4C50073
:1000E000918D558D85820582F5FA82808682C93F81
:1000F0002E8582823305A0406347B000B305B0402F
:10010000C1B7B305B0408682653F3305A040828207
:10011000868263C70500634905005D372E858282AC
:10012000B305B040E35B05FE3305A040513F330506
:10013000B04082820000311126C406C822C6AE84B7
:10014000AA87B28599C6014363D79600B684054352
:1001500019A00143A68633849640635304000144EA
:1001600022863A853EC21AC0A127024392472A87B7
:10017000B30685000146B385C4406342B00463D32F
:1001800004008144B38596003385E540630403028F
:100190006372B7029307A002A38FF5FE9386F5FF63
:1001A000637AD700238FF5FE9386E5FF6374D7004B
:1001B000A38EF5FEC2403244A24451018280B38531
:1001C000C70003C50500B385C60005062380A5004A
:1001D0005DB7B7F700E09C4737F700E03E951C4756
:1001E000898FE3CE07FE8280011106CE22CC26CA7B
:1001F00002C02A836357050089E685473303A04080
:100200003EC0058A1304100619C213041004BA84F0
:1002100059141A853AC81AC22EC61AC4C13DA54738
:100220002243B24542479376F50F63E1A7069386D2
:10023000060393F6F60F938714002380D4001A85E3
:100240003AC83EC62EC4AD3D9246A245B24742478B
:100250002A8363FBB602824699C69306D0022380A6
:10026000D700938724003385E7409356F501AA967B
:100270002380070085860146FD17634BD600F240B8
:100280006244D24405618280BE8461B7A29655B7AC
:10029000B305C70083C2070003C30500050623801A
:1002A000550023806700C9BFB7170240984BB706B7
:1002B0002000558F98CB984BB706E0FFFD16758F41
:1002C00098CBB757004003D74740C166938606FCDA
:1002D000758F136787012392E74071770507239E87
:1002E000E74003D70740136717002390E74003D781
:1002F0000740136707402390E740828093D736007A
:1003000093F6860F130141FDAA9626D03EC6B70488
:10031000002093F7F60F22D206D42AC02EC832CA84
:100320003ACC3EC4014493840400C247B245054719
:10033000A29713F677008D83FD8B9E07C2073316B5
:10034000C700C183228532CE3EC2993B7246D24756
:100350002247620661863E959347F6FF3ECE83476D
:1003600005008145BE8393178701E18763D50702A6
:10037000824761171377F70F0505E392E7FEE2471F
:1003800005041374F40FE362F4FAA2501254825479
:100390001301C10282809246B307B70093F7F70FAB
:1003A000B697C207C183B386F400724383C60600C2
:1003B000B282B3F6660005433313B300E20633F3AB
:1003C0006300E186631303008142A697B3E65600FB
:1003D0002380D7009D47E38DF5F88505B307B70067
:1003E000E207E18761B7B70700E09387470F9C43B7
:1003F0008280011122CC06CE26CA2AC002C82E84D1
:10040000F9E1B70700E09387470F9C4389C793F74B
:10041000070891E3C93FF24022856244D244056156
:100420008280B30694401D4636876353D6001D472D
:1004300037760200130616108325030013F505080E
:100440003DED81C91AC63AC436C2713F32432247D4
:10045000924693A63600014699E21306D7FF8247DB
:10046000938534000808BE951AC43AC299294246B9
:100470008247B70600E0224312479386860F90C258
:100480008D45338697008146834206008506938713
:10049000060133852700230055006305D7000506B4
:1004A000E394B6FE9306470093E606F82308D100CE
:1004B000C246BA942320D300E3C584F6A9BF7D16B3
:1004C00025FE268489BF370300E081441303430FD0
:1004D000E5B7511122C206C42E84213FA2402285D5
:1004E000124431018280970100209381A131138150
:1004F000010013050008731005308D461705000034
:10050000130545B0558D73105530170500201305A0
:1005100065AF938501C001466356B50010C1110552
:10052000E34EB5FE170500001305857897050020FA
:10053000938545AD170600201306C6AC6388C50039
:10054000144194C111059105E39AC5FEB7F700E087
:10055000054798C385679387079A7390173473008C
:10056000203001A0371702401C47B7068000D58F06
:100570001CC7AA8703C7070001E73385A74082800D
:100580008507CDBF130141FAA2CAA6C886CC2AC0EE
:100590002EC23284B68402CA834704009306140034
:1005A000A30FF10081EBE64056445245C6441301C7
:1005B000C105828036C6130750026380E7021246E7
:1005C000824785451305F1018297B24626C43684D9
:1005D000D247A244AA973ECAC1B7034714001306E4
:1005E000000393060003A30FE10032C69307240023
:1005F0006312D7083E8481468147A54511A8139709
:1006000027000504BA970347F4FF8607B29785468B
:10061000130607FD1375F60FE3F3A5FE99C2A30FAA
:10062000E1003EC8E14663D3F60036C81306C006B3
:1006300081466318C7000347040085460504A30FDD
:10064000E1000346F101130740066305E606636710
:10065000C702930780056300F60A93073006630D0F
:10066000F60A31D21246824785451305F101829779
:1006700026C4B9BF9306000236C6ADBF13075007A4
:10068000630AE602130780076307E60613073007CD
:10069000E31AE6FC3ECC9387440084403EC42685A2
:1006A000C93DE247AA856356F008C246324638186B
:1006B00026851DA0938744003EC495C61306B6F850
:1006C00018109336160088400146A945313EC246AF
:1006D00032463818AA850810B93C1246AA8528184F
:1006E00082478297F5B59307500718108546E30CAB
:1006F000F6FC8146C9BF8840130686FA93874400FA
:100700001810854613361600C1453EC4F13CC2465A
:100710003246AA853818C1B7938744003EC49C402E
:10072000C2463246A30FF100381885451305F10182
:1007300065B7124626856DB71301C1FD32CA2A86F8
:100740002EC836CC814514081305204D06C63ACE76
:100750003ED036C0053DB24013014102828085671C
:100760000A059387C7B9AA978C43056551111305EC
:1007700045B206C4D137A24031013DB66167B757D3
:1007800000401307076A938707407D5683D6870189
:10079000898AF1C27D17E31BC7FE01451DA03757AB
:1007A0000040AA951307074093F5F50FE16793877B
:1007B000176A8356470193F6060889E6FD17F5FB8D
:1007C0000D4571BF8347050005052318F700937792
:1007D000F50FE39DF5FCE16637570040370607004B
:1007E0009386066A1307074013064608FD5503550E
:1007F000470183578701C207C98FF18F6387C700FD
:10080000FD16E396B6FE11456DBF8357070093E7CB
:1008100007202310F7008280930780072318F70032
:10082000375600406167B70607001307076A1306CB
:100830000640938626087D538352460183578601DE
:10084000C207B3E75700F58FE38BD7F47D17E315A5
:1008500067FE0945BDB703D70700E1663706030009
:10086000136707102390E700375700409386066A06
:100870001307074005067D538352470183578701BD
:10088000C207B3E75700F18FE388C7F8FD16E39579
:1008900066FE05453DB77971A300A10089450A852B
:1008A00006D623000100D93DB25001454561828042
:1008B0002A96AA876393C70082802380B7008507A2
:1008C000D5BF81476313F60082803387F5008346E6
:1008D00007003307F50085072300D700E5B77971D6
:1008E0001305100206D622D426D275370145653786
:1008F0001305F0074D3713052002713F0145613F95
:10090000370400201D45130404007137930404408C
:1009100093070004A28513060002130511002300AB
:10092000F1004537930510020A8513040402B93516
:10093000E31094FEB2502254925445618280B7274E
:100940000240054798C3B71702403707080123A2A2
:1009500007001307170898C337079F0098C7371772
:1009600002401C4393966700E3DD06FE5C43B71626
:100970000240F19B93E727005CC32147DC42B18B27
:10098000E39EE7FEB70700E09387870F23A00700E9
:10099000B70700E09387470F1307000898C38280CA
:1009A000511106C422C226C0593FB71402409C4CC4
:1009B00037140140B706008093E747009CCC9C4C5D
:1009C000372509001305057C93E707019CCC1C40E3
:1009D00093F7F7F01CC01C4093E707011CC0B71742
:1009E00001409387078098431207118398C3984367
:1009F000558F98C31307000898CB9843C576FD160A
:100A000098C3984398C31307001098CB9843758FE9
:100A100098C39843A166558F98C3214798CBEFF0B0
:100A20004FFB372509001305057CEFF08FFA9C4C2E
:100A30003707200093E707019CCCDC4CD98FDCCC36
:100A40001C407D771307F70F93F7F7F01CC01C408D
:100A500093E7070D1CC01C40F98F1CC01C400567A4
:100A6000130707D0D98F1CC00564EFF0FF83130470
:100A700004BB034504009307F00F631CF500370522
:100A80000020130600408145130505001535813D02
:100A900021A00504093571DDB7170140094798CB3E
:100AA000B7040020B7170140938707809C4793F74E
:100AB000070889E7B7170140094798CB2544130673
:100AC0000040814513850400E53305666147E14632
:100AD000130646C6D1451305A005EFF03F82056613
:100AE0003147B1461306C6C4814513050002EFF035
:100AF000FF80056613070002930600021306C6BCBA
:100B0000930500020145EFF06FFFD13B3725B70099
:100B10007D14130505B01374F40FEFF08FEB45F05F
:100B200051B70000737364313330365F6932635FED
:100B30006572726F72202D2074696D656F757420F7
:100B400077616974696E6720666F722025730A0D7C
:100B5000000000006E6F7420627573790000000061
:100B60006D6173746572206D6F6465007472616E7F
:100B7000736D6974206D6F64650000007478206582
:100B80006D707479000000007472616E736D697429
:100B900020636F6D706C657465000000540B00007D
:100BA000600B00006C0B00007C0B0000880B000049
:100BB000AED580A83FD300408D142000A1C8DA1222
:100BC000818FD9F1DB40A4A6AFFF00000000000038
:100BD0000000000000000000000000000000000015
:100BE00000000C000000120000002400000048007B
:100BF000000050000000F8000003FE00000FFF801E
:100C0000001FFFC0001FFFC0003FFFE0003FFFE0EC
:100C100000739FF000739FF000739FF000739FF0CC
:100C200000739FF0003FFFE0003FFFE0001FFFC0A8
:100C3000001FFFC0000FFF800013E0400020C02015
:100C4000007FFFE000000000000000000700170028
:100C50001E000C800F000C400C601E20152006604A
:100C600007C003800000000000000000000000003A
:100C700000000000000003C03C03C03C00FFF00087
:100C8000FFF03FFFFF3FFFFFFCC33FFCC33FF30309
:100C90000FF3030FF000C0F000C03C3C003C3C00F0
:0C0CA0000FF0000FF0000000000000004A
:00000001FF
