:100000006F00207100000000900700008E070000C4
:1000100000000000000000000000000000000000E0
:1000200000000000000000000000000000000000D0
:100030008E070000000000008E0700000000000096
:100040008E0700008E0700008E0700008E0700005C
:100050008E0700008E0700008E0700008E0700004C
:100060008E0700008E0700008E0700008E0700003C
:100070008E0700008E0700008E0700008E0700002C
:100080008E0700008E0700008E0700008E0700001C
:100090008E0700008E0700008E07000000000000A1
:1000A000634E050263C305042E86AA857D5515C2DD
:1000B00085466378B6006356C00006068606E36C84
:1000C000B6FE014563E4C500918D558D858205829C
:1000D000F5FA82808682C93F2E8582823305A04050
:1000E0006347B000B305B040C1B7B305B0408682E6
:1000F000653F3305A0408282868263C7050063495D
:1001000005005D372E858282B305B040E35B05FEB6
:100110003305A040513F3305B040828200003111C9
:1001200026C406C822C6AE84AA87B28599C60143F2
:1001300063D79600B684054319A00143A68633848D
:10014000964063530400014422863A853EC21AC099
:10015000EF00B005024392472A87B30685000146A7
:10016000B385C4406342B00463D304008144B385C3
:1001700096003385E540630403026372B702930778
:10018000A002A38FF5FE9386F5FF637AD700238F35
:10019000F5FE9386E5FF6374D700A38EF5FEC2409B
:1001A0003244A24451018280B385C70003C50500D3
:1001B000B385C60005062380A5005DB7B7F700E04C
:1001C0009C4737F700E03E951C47898FE3CE07FE3A
:1001D0008280011106CE22CC26CA02C02A83635730
:1001E000050089E685473303A0403EC0058A130415
:1001F000100619C213041004BA8459141A853AC897
:100200001AC22EC61AC4F935A5472243B245424741
:100210009376F50F63E1A7069386060393F6F60F30
:10022000938714002380D4001A853AC83EC62EC492
:10023000A53D9246A245B24742472A8363FBB602D8
:10024000824699C69306D0022380D7009387240064
:100250003385E7409356F501AA96238007008586EB
:100260000146FD17634BD600F2406244D24405615B
:100270008280BE8461B7A29655B7B305C70083C21A
:10028000070003C30500050623805500238067008F
:10029000C9BFB7170240984BB7062000558F98CBBF
:1002A000984BB706E0FFFD16758F98CBB757004007
:1002B00003D74740C166938606FC758F1367870195
:1002C0002392E74071770507239EE74003D7074055
:1002D000136717002390E74003D7074013670740D1
:1002E0002390E740828093178501E18763C8070266
:1002F000FD4763E5B70293D735009E073E95B707E4
:10030000002093870700AA979D89854603C70700A9
:10031000B395B60009C64D8F2380E700828093C550
:10032000F5FF6D8FD5BF131785016187634B0704F8
:100330007D476368B7043111B28706C8368622C686
:1003400026C43307F5009306000863D7E600930739
:1003500000F8898F93F7F70FAA9713F4F70F631735
:10036000A400C2403244A244510182809307150088
:1003700093F4F70F32C22EC0BD3712468245268550
:10038000F9BF82801377F60F931737001301C1FB73
:1003900093F7F70F3EC6C147918F8E0722DE86C0C6
:1003A00026DC2ACA2EC23EC80144924785073EC2B7
:1003B00083C7F7FF3EC4CDC3D24781433EC0A247A7
:1003C0008566938606228E079E97B69783C207009E
:1003D0002283A14613D6720081473305F3001375BB
:1003E000F50F81443ED2824736DA1AD8B38597009A
:1003F00093F5F50F1ED616D43AD032CE2ACCE53579
:100400000257850493F4F40F624572469257A25244
:10041000B2534253D256E3E7E4FC850793F7F70F54
:10042000E3EDE7FAFD16C20686023A93C18293F223
:10043000F20F1373F30FD9FE82478503BA9793F730
:10044000F70F3EC0A147E39CF3F6B2473E94C24784
:100450001374F40FE3FB87F486407254E2541301E3
:1004600041048280130181FD26CE06D222D0AA86C5
:100470002EC2814485629397340093F7F70F3EC0F4
:100480009247A69703C30700630603068147938339
:100490000222131733003E971E9703470700B385C8
:1004A000F600014493F5F50F3ECA824713567700D4
:1004B00036CC338587001375F50F1AC83AC62EC49B
:1004C0001D35324705044204056506074180214673
:1004D000A2454243D247E2461377F70F9303052222
:1004E000AA82E313C4FC8507E39587FA8504C14714
:1004F000E393F4F892500254F24413018102828093
:10050000130181FDB387B64026CEAE8493950701D3
:10051000C185BD85AD8F8D8FC207C18722D03304C1
:10052000A6403EC093170401C187BD873D8C1D8C3A
:1005300093170401C1873EC21247824706D263481F
:10054000F700B687B2863E86A687AA843E8563E812
:100550009600B2872A863E85B687A686BE84B38576
:10056000D44093970501C1833EC6B307C54013939A
:100570000701135303411353F340B347F300B38709
:100580006740C207C205C183C1853EC87D5793D766
:10059000F501AE97131306013AC48587135303413F
:1005A0006374A60005473AC413940601418463D8D6
:1005B000840092500254F244130181028280024767
:1005C00092463ECC1ACA1375F40F9372F30F054688
:1005D00063DCE602AA85168539335243E247424777
:1005E000998F13960701C207C187418263DB070019
:1005F000A2473E93B247420313530341B297C20747
:10060000C187930614004DB79685F139E2475243EE
:10061000F9B7B70700E09387470F9C438280011129
:1006200022CC06CE26CA2AC002C82E84F9E1B7071A
:1006300000E09387470F9C4389C793F7070891E32E
:10064000C93FF24022856244D24405618280B306EC
:1006500094401D4636876353D6001D473776020007
:10066000130616108325030013F505083DED81C917
:100670001AC63AC436C2713F32432247924693A605
:100680003600014699E21306D7FF8247938534006E
:100690000808BE951AC43AC2152642468247B706D4
:1006A00000E0224312479386860F90C28D45338621
:1006B00097008146834206008506938706013385AD
:1006C0002700230055006305D7000506E394B6FE16
:1006D0009306470093E606F82308D100C246BA9471
:1006E0002320D300E3C584F6A9BF7D1625FE26840A
:1006F00089BF370300E081441303430FE5B751116D
:1007000022C206C42E84213FA24022851244310118
:100710008280970100209381E10E1381010013056F
:100720000008731005308D46170500001305858DF0
:10073000558D73105530170500201305A58C938532
:1007400001A001466356B50010C11105E34EB5FE88
:10075000171500001305C537970500209385858A76
:10076000170600201306068A6388C500144194C149
:1007700011059105E39AC5FEB7F700E0054798C358
:100780008567938747C8739017347300203001A0A2
:10079000371702401C47B7068000D58F1CC7AA87B1
:1007A00003C7070001E73385A74082808507CDBFD7
:1007B000130141FAA2CAA6C886CC2AC02EC232842E
:1007C000B68402CA8347040093061400A30FF10005
:1007D00081EBE64056445245C6441301C105828070
:1007E00036C6130750026380E702124682478545EA
:1007F0001305F1018297B24626C43684D247A2443B
:10080000AA973ECAC1B70347140013060003930614
:100810000003A30FE10032C6930724006312D70838
:100820003E8481468147A54511A8139727000504FA
:10083000BA970347F4FF8607B2978546130607FD6C
:100840001375F60FE3F3A5FE99C2A30FE1003EC8AE
:10085000E14663D3F60036C81306C0068146631826
:10086000C7000347040085460504A30FE1000346C3
:10087000F101130740066305E6066367C7029307A5
:1008800080056301F60A93073006630EF60A31D23B
:100890001246824785451305F101829726C4B9BFE8
:1008A0009306000236C6ADBF13075007630AE6027F
:1008B000130780076308E60613073007E31AE6FC10
:1008C0003ECC9387440084403EC42685C93DE24720
:1008D000AA856357F008C2463246381826851DA0FF
:1008E000938744003EC49DC61306B6F8181093368D
:1008F000160088400146A945E938C24632463818F4
:10090000AA850810EFF0BF811246AA8528188247F1
:100910008297EDB59307500718108546E30BF6FC58
:100920008146C1BF8840130686FA93874400181099
:10093000854613361600C1453EC46138C24632466C
:10094000AA8538187DBF938744003EC49C40C246A8
:100950003246A30FF100381885451305F1015DB744
:10096000124626856DB71301C1FD32CA2A862EC8EC
:1009700036CC814514081305E06F06C63ACE3ED04A
:1009800036C03D35B24013014102828085670A05B9
:100990009387C720AA978C4305655111130545120B
:1009A00006C4D137A2403101EDB02A96AA876393DD
:1009B000C70082802380B7008507D5BF81476313B6
:1009C000F60082803387F500834607003307F50081
:1009D00085072300D700E5B7797122D406D62E8487
:1009E00005CA8347050023000100A300F1006167E9
:1009F000B75700401307076A938707407D5683D691
:100A00008701898AF5C27D17E31BC7FE01452DA822
:100A1000930700042E86AA85130511002300F10018
:100A2000713FF1B7375700408A8613070740930597
:100A3000F00FE1679387176A03564701137606089C
:100A400001EAFD17F5FB0D452254B25045613DBF4B
:100A500083C706007D141374F40F2318F70085066E
:100A6000E319B4FCE1663757004037060700938668
:100A7000066A1307074013064608FD55035547014C
:100A800083578701C207C98FF18F6387C700FD169F
:100A9000E396B6FE11454DBF83570700B25022546E
:100AA00093E707202310F7004561828093078007B2
:100AB0002318F700375600406167B7060700130791
:100AC000076A1306064093862608FD55035546011E
:100AD00083578601C207C98FF58FE385D7F47D1749
:100AE000E316B7FE09458DB703D70700E166370661
:100AF0000300136707102390E700375700409386E1
:100B0000066A130707400506FD550355470183573D
:100B10008701C207C98FF18FE38AC7F8FD16E396F4
:100B2000B6FE054515B74111A301A1000546130501
:100B30003100854506C64D35B240014541018280F0
:100B40001301C1FC1305100206D822D626D4E13FBA
:100B50000145D13F1305F007F93713052002E137AE
:100B60000145D1371D45C1373704002081471304A3
:100B70000400BE82896401479384C4ABB3858200BC
:100B8000130600029306870033852600B386E5002E
:100B900083C606000507BD8AA69683C60600230005
:100BA000D500E311C7FE01469305000228003EC2AE
:100BB00016C01D35824292479382020213830708B2
:100BC000E39A62FA93020002014733868700930694
:100BD0008700B3852600B306E60083C60600050736
:100BE0009182A69683C606002380D500E31157FEA6
:100BF00001469305000228001AC23EC0F13B82471D
:100C000012439302000293870702E39F67FA1307D8
:100C10000020E390E7F6C2503254A254130141037E
:100C20008280B7270240054798C3B71702403707AD
:100C3000080123A207001307170898C337079F006E
:100C400098C7371702401C4393966700E3DD06FE02
:100C50005C43B7160240F19B93E727005CC3214732
:100C6000DC42B18BE39EE7FEB70700E09387870F76
:100C700023A00700B70700E09387470F130700087A
:100C800098C38280130141FD06D422D226D0513F61
:100C9000372509001305057CEFF04FD237250900F1
:100CA0001305057CEFF08FD1B7170240984FB706B8
:100CB000200009641367070198CFD84F130404A2DA
:100CC000558FD8CFB71701409843FD769386F60F1E
:100CD0001377F7F098C398431367070D98C39843A9
:100CE000758F98C398438566938606D0558F98C3B1
:100CF000EFF02FDA034504009307F00F631CF500B3
:100D000037050020130600208145130505007139C1
:100D1000053D21A00504013D71DD02C0B70700209B
:100D2000138507001306002081454131824719478A
:100D3000FD1793F7F70F6369F70005678A07130735
:100D4000071FBA979C4382873707002013060700C6
:100D5000814713070020B386C7002380F60085076C
:100D6000E39BE7FEF13B3725B700130505B0EFF035
:100D7000EFC48247850793F7F70F3EC00247A147AC
:100D8000E31EF7F859BF814413D4244013F5F40F40
:100D900005469375F40F2AC2EFF0EFD41245B30560
:100DA0008040FD05054693F5F50FEFF0CFD38504A0
:100DB00093070008E39AF4FC75B7014493142400E8
:100DC000C204C180A2861306000881452685EFF083
:100DD0002FF3930700089306000233859740818E16
:100DE0004205C2064181C1820146930500021104F9
:100DF000EFF00FF14204418093070002E310F4FC8E
:100E000095B781471307F003636BF70A11538146C7
:100E1000C55413F7F40F3384E7403EC69377F40FBD
:100E200013F4F60F9305040193F5F50F3E8505467F
:100E30001ACC36CA3AC83EC22EC4EFF0CFCAB24767
:100E40004247A24505463E971375F70F3EC82AC68E
:100E5000EFF06FC93245C145818D93F5F50F054619
:100E60002EC4EFF04FC8A24512450546EFF0AFC7BC
:100E7000D2466243C24763C266048506C206C18683
:100E80001397160005071A974207330690404187CB
:100E90006395C60063C56400014363DE6400850496
:100EA000C204C1840546638DC40E13961400050662
:100EB0003297420741873A83A9BF1A87F9BF9153F6
:100EC000814245539374F30FB38697403EC293F724
:100ED000F60F13F4F20F3EC693060401324593F762
:100EE000F60FBE8505461ECE1ACC16CA3EC4EFF0DC
:100EF0008FBF9247A2450546338797003EC8937738
:100F0000F70F3E853EC2EFF00FBEC14633848640E8
:100F100012451374F40F0546A285EFF0CFBC32459D
:100F20000546A285EFF02FBC33069040A24512453E
:100F3000060605061376F60F854632C6EFF0AFBEFD
:100F4000324612458546A285EFF0EFBDD242F2430C
:100F5000C247624363C472048502C20293D2024153
:100F60001397120005071E974207B306604041879A
:100F70006395D200634573008143635F730005038B
:100F80004203135303419316130085063697420715
:100F900085464187630AD300BA832DB71E87F1BF08
:100FA000C10793F7F70FB9BDC10793F7F70F130701
:100FB0000008E399E7E47DB309661306C6A38146FA
:100FC000854013F7760093D736003397E000FD8B0A
:100FD000931487019E0793870702E184C20713C712
:100FE000F4FFC183B282930500023AC603C7020030
:100FF00001453AC237070020130707003383E70093
:10100000B243034703002684337777006207618782
:101010003AC41247B393A000B373770063930300FD
:101020000144224705050503418FA30FE3FE214735
:10103000E318E5FCE117E115C20793F5F50F85020A
:10104000C183CDF58506930700021106E39BF6F6F2
:1010500011BB8565938545150145EFF0AFC08565EA
:10106000938545162145EFF0EFBF8565938585177C
:101070004145EFF02FBF8565938585186145EFF0F9
:101080006FBE37070020814785457D451303070064
:1010900093D6370093F6F60F9E0693F27700C206BA
:1010A000B3925500C18293F2F20F130600041307A6
:1010B00000049313870193D3834163CC0302636BD2
:1010C000F500B303D7009A9383C00300B3C01200A6
:1010D0002380130005071377F70F7D161376F60F9D
:1010E00069FA850793F7F70F13070008E392E7FA09
:1010F00095B913071008D5B7856505469385051979
:101100000145EFF02FA8856509469385851941456E
:10111000EFF04FA781B9856511469385051A014502
:10112000C5BF0000737364313330365F6932635F6B
:101130006572726F72202D2074696D656F757420F1
:1011400077616974696E6720666F722025730A0D76
:101150000000000054686973206973206120746581
:10116000737400006F662074686520656D65726732
:10117000656E63790000000062726F616463617381
:1011800074696E670000000073797374656D2E00DA
:10119000737A203878380000313678313600000014
:1011A00033327833320000006E6F742062757379C9
:1011B000000000006D6173746572206D6F646500DE
:1011C0007472616E736D6974206D6F6465000000E8
:1011D000747820656D707479000000007472616E1F
:1011E000736D697420636F6D706C657465000000C9
:1011F000860D0000BA0D0000020E0000B80F0000BE
:1012000052100000F810000016110000A811000094
:10121000B4110000C0110000D0110000DC1100006A
:1012200000000000000000007E81A581BD99817E44
:101230007EFFDBFFC3E7FF7E6CFEFEFE7C38100006
:1012400010387CFE7C381000387C38FEFED6103812
:1012500010387CFEFE7C10380000183C3C18000062
:10126000FFFFE7C3C3E7FFFF003C664242663C0066
:10127000FFC399BDBD99C3FF0F070F7DCCCCCC78C0
:101280003C6666663C187E183F333F303070F0E0B5
:101290007F637F636367E6C018DB3CE7E73CDB18EE
:1012A00080E0F8FEF8E08000020E3EFE3E0E0200F6
:1012B000183C7E18187E3C186666666666006600F6
:1012C0007FDBDB7B1B1B1B003E613C66663C867C38
:1012D000000000007E7E7E00183C7E187E3C18FFD9
:1012E000183C7E1818181800181818187E3C18009A
:1012F00000180CFE0C180000003060FE603000008A
:101300000000C0C0C0FE0000002466FF662400008C
:1013100000183C7EFFFF000000FFFF7E3C1800002D
:101320000000000000000000183C3C1818001800E5
:1013300066662400000000006C6CFE6CFE6C6C00A5
:10134000183E603C067C180000C6CC183066C6000B
:10135000386C3876DCCC76001818300000000000BD
:101360000C18303030180C0030180C0C0C183000F1
:1013700000663CFF3C6600000018187E181800004C
:1013800000000000001818300000007E000000007F
:101390000000000000181800060C183060C0800023
:1013A000386CC6D6C66C38001838181818187E0065
:1013B0007CC6061C3066FE007CC6063C06C67C0069
:1013C0001C3C6CCCFE0C1E00FEC0C0FC06C67C00A3
:1013D0003860C0FCC6C67C00FEC60C183030300039
:1013E0007CC6C67CC6C67C007CC6C67E060C780061
:1013F00000181800001818000018180000181830FD
:10140000060C1830180C060000007E00007E00005C
:101410006030180C183060007CC60C1818001800DA
:101420007CC6DEDEDEC07800386CC6FEC6C6C600EE
:10143000FC66667C6666FC003C66C0C0C0663C001C
:10144000F86C6666666CF800FE6268786862FE009A
:10145000FE6268786860F0003C66C0C0CE663A0004
:10146000C6C6C6FEC6C6C6003C18181818183C00EA
:101470001E0C0C0CCCCC7800E6666C786C66E60032
:10148000F06060606266FE00C6EEFEFED6C6C60074
:10149000C6E6F6DECEC6C6007CC6C6C6C6C67C009C
:1014A000FC66667C6060F0007CC6C6C6C6CE7C0E5C
:1014B000FC66667C6C66E6003C6630180C663C0098
:1014C0007E7E5A1818183C00C6C6C6C6C6C67C0022
:1014D000C6C6C6C6C66C3800C6C6C6D6D6FE6C0022
:1014E000C6C66C386CC6C6006666663C18183C00FA
:1014F000FEC68C183266FE003C30303030303C0086
:10150000C06030180C0602003C0C0C0C0C0C3C00AB
:1015100010386CC60000000000000000000000FF52
:1015200030180C00000000000000780C7CCC760025
:10153000E0607C666666DC0000007CC6C0C67C009D
:101540001C0C7CCCCCCC760000007CC6FEC07C00A1
:101550003C6660F86060F000000076CCCC7C0CF853
:10156000E0606C766666E6001800381818183C00D3
:10157000060006060666663CE060666C786CE6006F
:101580003818181818183C000000ECFED6D6D60003
:101590000000DC666666660000007CC6C6C67C008D
:1015A0000000DC66667C60F0000076CCCC7C0C1E13
:1015B0000000DC766060F00000007EC07C06FC006D
:1015C0003030FC3030361C000000CCCCCCCC760067
:1015D0000000C6C6C66C38000000C6D6D6FE6C0039
:1015E0000000C66C386CC6000000C6C6C67E06FC8D
:1015F00000007E4C18327E000E18187018180E006D
:1016000018181818181818007018180E18187000E4
:1016100076DC0000000000000010386CC6C6FE003A
:101620007CC6C0C0C67C0C78CC00CCCCCCCC7600C0
:101630000C187CC6FEC07C007C82780C7CCC7600CA
:10164000C600780C7CCC76003018780C7CCC760008
:101650003030780C7CCC760000007EC0C07E0C3828
:101660007C827CC6FEC07C00C6007CC6FEC07C00BE
:1016700030187CC6FEC07C006600381818183C0084
:101680007C82381818183C003018003818183C00B4
:10169000C6386CC6FEC6C600386C7CC6FEC6C60020
:1016A0001830FEC0F8C0FE0000007E187ED87E0014
:1016B0003E6CCCFECCCCCE007C827CC6C6C67C0008
:1016C000C6007CC6C6C67C0030187CC6C6C67C0078
:1016D000788400CCCCCC76006030CCCCCCCC7600FE
:1016E000C600C6C6C67E06FCC6386CC6C66C3800C8
:1016F000C600C6C6C6C67C0018187EC0C07E1818B4
:10170000386C64F06066FC0066663C7E187E1818D3
:10171000F8CCCCFAC6CFC6C70E1B183C18D8700040
:101720001830780C7CCC76000C18003818183C0067
:101730000C187CC6C6C67C001830CCCCCCCC76004D
:1017400076DC00DC6666660076DC00E6F6DECE005F
:101750003C6C6C3E007E0000386C6C38007C0000F5
:101760001800181830633E00000000FEC0C00000E2
:10177000000000FE0606000063E66C7E3366CC0FB8
:1017800063E66C7A366ADF06180018183C3C1800CD
:10179000003366CC6633000000CC663366CC0000B4
:1017A000228822882288228855AA55AA55AA55AA95
:1017B00077DD77DD77DD77DD181818181818181819
:1017C00018181818F81818181818F818F8181818F9
:1017D00036363636F636363600000000FE363636F9
:1017E0000000F818F81818183636F606F6363636A9
:1017F00036363636363636360000FE06F63636369D
:101800003636F606FE00000036363636FE0000009C
:101810001818F818F800000000000000F818181850
:10182000181818181F00000018181818FF000000DA
:1018300000000000FF181818181818181F1818189A
:1018400000000000FF00000018181818FF181818F2
:1018500018181F181F181818363636363736363609
:10186000363637303F00000000003F30373636361E
:101870003636F700FF0000000000FF00F73636366E
:1018800036363730373636360000FF00FF000000AE
:101890003636F700F73636361818FF00FF0000001E
:1018A00036363636FF0000000000FF00FF1818181B
:1018B00000000000FF363636363636363F00000070
:1018C00018181F181F00000000001F181F181818F4
:1018D000000000003F36363636363636FF363636AE
:1018E0001818FF18FF18181818181818F800000012
:1018F000000000001F181818FFFFFFFFFFFFFFFF89
:1019000000000000FFFFFFFFF0F0F0F0F0F0F0F05B
:101910000F0F0F0F0F0F0F0FFFFFFFFF0000000053
:10192000000076DCC8DC760078CCCCD8CCC6CC0005
:10193000FEC6C0C0C0C0C0000000FE6C6C6C6C0075
:10194000FEC6603060C6FE0000007ED8D8D87000A9
:101950000000666666667CC00076DC181818180001
:101960007E183C66663C187E386CC6FEC66C380035
:10197000386CC6C66C6CEE000E180C3E66663C00F9
:1019800000007EDBDB7E0000060C7EDBDB7E60C0C1
:101990001E30607E60301E00007CC6C6C6C6C60013
:1019A00000FE00FE00FE000018187E1818007E00E1
:1019B00030180C1830007E000C1830180C007E0017
:1019C0000E1B1B18181818181818181818D8D870C3
:1019D0000018007E001800000076DC0076DC0000B5
:1019E000386C6C380000000000000018180000007F
:1019F00000000018000000000F0C0C0CEC6C3C1CEC
:101A00006C36363636000000780C18307C0000004A
:101A100000003C3C3C3C00000000000000000000D6
:101A2000AED580A83FD300408D142000A1C8DA12A3
:101A3000818FD9F1DB40A4A6AFFF000000000000B9
:101A40000000000000000000000000000000000096
:101A500000000C00000012000000240000004800FC
:101A6000000050000000F8000003FE00000FFF809F
:101A7000001FFFC0001FFFC0003FFFE0003FFFE06E
:101A800000739FF000739FF000739FF000739FF04E
:101A900000739FF0003FFFE0003FFFE0001FFFC02A
:101AA000001FFFC0000FFF800013E0400020C02097
:101AB000007FFFE000000000000000000002080AB4
:0C1AC0002022282A8082888AA0A2A8AADE
:00000001FF
